:020000042A00D0
:10000000D1DC4B843410D7730D000000FFFFFFFFDD
:10001000FFFFFFFF500000005000002A48D0000002
:1000200048D0000098D0002A0000000098D0002A94
:10003000000000000100000001000000FFFFFFFFC2
:10004000FFFFFFFFFFFFFFFFFFFFFFFFFFFFFFFFC0
:100050008A2D00EAD8B4002AD8B4002AD8B4002ADD
:10006000D8B4002AD8B4002AD8B4002AD8B4002AB8
:10007000D8B4002A7847C046640051E3682B000AD0
:10008000730051E3E52C000A0000B0E31EFF2FE1EE
:1000900030B48E4A08290FD38D4C0578130A12020A
:1000A0006B405B00E35A53401A04120C08390904F0
:1000B000090C401C0829F0D2002917D0007803024F
:1000C000491E08048349000C14005C40240403D535
:1000D0005204120C4A4001E05204120C5B041B0C47
:1000E0000400401E0004000C002CEDD1D04330BCB5
:1000F0000004000C704710B4744A08290DD3764BE5
:10010000047854402406E40D1C5B120A624008394E
:100110000904090C401C0829F2D2002914D00078E7
:100120000302491E08046D49000C14005C40E407FA
:1001300002D052084A4000E052085B080400401E0A
:100140000004000C002CF0D1D04310BC0004000CC3
:10015000704730B4624A08290ED3624B0578940D7B
:100160006C402406A40D1C5912026240083909048F
:10017000090C401C0829F1D2002914D0007883050D
:10018000491E08045849000C14005C40A40002D524
:1001900052004A4000E052005B000400401E000490
:1001A000000C002CF0D1D04330BC80008008704798
:1001B00030B44B4B8343082A0ED34A480D789C0D2C
:1001C0006C402406A40D04591B026340083A120433
:1001D000120C491C082AF1D2002A14D00878810593
:1001E000521E1004404A000C1C004C40A40002D5D2
:1001F0005B00534000E05B0049000400401E000427
:10020000000C002CF0D1D84330BC8000800870472F
:1002100030B4C0430004000C002A0FD02C4C0D78E1
:10022000030A00026B405B00E35A43401804000CD1
:10023000521E1204120C491C002AF0D1C04330BCDB
:100240000004000C704710B4C0430004000C002AE6
:100250000BD0214B0C7844402406E40D1C5B000AB3
:100260006040521E491C002AF4D1C04310BC000457
:10027000000C7047030030B4100008290DD31B4A4E
:100280001D78040E6C40A400145900026040083927
:100290000904090C5B1C0829F2D2002913D01A7832
:1002A0001206491E124B0904090C0400544002D5E1
:1002B0004000584000E0400052000C00491E090474
:1002C000090C002CF1D130BC70470000FFFF00008A
:1002D000B4BE002A21100000B4C0002A0884000027
:1002E000FFFFFF3FB4BA002AC7B93060B4C2002A8A
:1002F000B71DC104002101604160704710B52D4C4D
:1003000020680BF029FA01280DD160680BF024FA5F
:10031000002806D100F0B0F960680BF01DFA002843
:10032000F8D02548046110BC08BC184782B00020F2
:100330000190072101AA00F0A9F869460A79422034
:10034000024301920721002000F07CF8FFF7D6FF5E
:1003500000F00DFA1948184C20606060A060E06061
:100360001748FFF7C7FF174861680BF0F6F9164802
:10037000A1680BF0F2F91548E1680BF0EEF901F015
:100380000BF9134C200000F07EF9FBE700207047CA
:100390000020704710B56421484300F074F910BC88
:1003A00008BC1847704700200A49401C8842FCDB03
:1003B000704700003CCD002AFCCC002AF502002A40
:1003C000A810012AB010012AB810012AC010012A71
:1003D00010270000E803000010B5032801D20F2900
:1003E00003D310BC08BC00201847524A80001150AB
:1003F000514A524B525C595C514B185801F053FA18
:1004000010BC08BC0120184770B50400032C12D2A0
:10041000012C02D14B4905200863494EA5007059B3
:10042000002101F0C5F9705901F0EEF94148415938
:100430002000FFF7D1FF70BC08BC184701207047AF
:100440000120704707B582B0032803D3002005B010
:1004500008BC18473C4980000A583949032A0BD088
:100460000858012304AA03A901F054FB0128EED087
:1004700005B008BC002018476B469A8901920858BD
:10048000012304AA01A901F00DFBEFE717B581B024
:10049000032804D3002004B010BC08BC18472A4924
:1004A00080000B582649032B0BD00858012302A9C2
:1004B00001F04CFB0128EED004B010BC08BC0020B9
:1004C00018476C462389009308580123694601F0B8
:1004D00005FBEFE770B51500032801D2012903D908
:1004E00070BC08BC00201847174A840000290ED0B1
:1004F00004201051124E1159305901F007FA3059A9
:10050000290001F013FA70BC08BC01201847032031
:100510001051EFE710B5032803D310BC08BC00202E
:100520001847074B8000185801F0F4FB10BC08BCBA
:1005300001201847C810012ACFC6002AC0C6002AC9
:10054000B4C6002AC014800010CD002A10B531486E
:10055000006802F0E3FD10BC08BC184710B502F0BB
:10056000AAF910BC08BC184710B502F0EFF9002832
:1005700007D0284C206802F0D1FD02F0E7F90028EE
:10058000F8D110BC08BC18470120704710B5040012
:100590006068022806D1E169606900F0E7F920008F
:1005A00002F014FA10BC08BC184738B5002002F05D
:1005B000D4F8012000230090174918481A0002F0CF
:1005C000DCF8144D286000281FD0C068002103F01B
:1005D00073FA1349441828680021C06803F06CFAC4
:1005E000201A002811DD286802F098FD2868C169EA
:1005F000002903D038BC08BC01201847C06800217E
:1006000003F05AFA201A0028EDDC38BC08BC0020A0
:10061000184700001CCD002A20CD002A8D05002A95
:1006200020A1070001212E48090321A20AF076FB30
:100630002B4800F046F92B4900200862FEE770477E
:1006400070B529480124846328490C638463284DCC
:10065000002028602748E860274804623449204881
:1006600026A20AF05BFB1E4800F02BF9032028604D
:100670002C6070BC08BC18471B490120C8631B498B
:1006800000200863704770B5174C0025A560012154
:10069000E1600BF0DDF8274A274B0BF0E1F80BF097
:1006A00071F8A1688142FCD3E56070BC08BC1847B2
:1006B00041626F757420746F2068697420494E46DA
:1006C000494E495445204C4F4F5020666F72207759
:1006D00061746368646F67207265736574000000FD
:1006E000F89E012A0008800000A000020000401AC5
:1006F00040A00002F3310000003890004857494FF5
:100700005F4F555428415043535F574454305F4323
:100710005055305F57444F475F4558504952454404
:100720005F454E41424C452C20307831293B00003A
:10073000001000008DEDB5A0F7C6A03F70B5040015
:10074000200004E0521E0B78491C0370401C002A54
:1007500005D0CB07DB0FC507ED0F2B43F2D1002AE5
:1007600001D00AF0D7FB200070BC08BC184710B4B9
:10077000FF4B00221A609A800120411E8C0109194A
:100780000901CC188101411809015C50C9188A80FF
:10079000401C1E28F1DBF749F74801624262C26241
:1007A000027082620121417010BC704710B4F24A9D
:1007B000F24CD06A00238188C91EA14202D38380F3
:1007C00010BC7047916A002905D00860D06A906219
:1007D000D36210BC704790625062D36210BC704705
:1007E000F8B5E74F3868C0680AF0B6FF38680169A5
:1007F0007E200AF0B2FF01250024DF48016B0029AA
:1008000018D9E043C00603D13868C0680AF0A4FFD5
:10081000DC48065D7E2E26D07D2E24D03968300639
:100820000969000E0AF099FF6D1C641CD248006B28
:100830008442E6D33868C0680AF08EFF38680169E0
:100840007E200AF08AFF6D1CA80609D1386801696C
:100850007E200AF082FF386801697E200AF07DFF61
:10086000F8BC08BC1847386801697D200AF075FF9C
:1008700020203968464030060969000E0AF06DFFF5
:10088000AD1CD2E710B5BC4C206BC004010CBD48B8
:10089000FFF731FCBB4A216B5054000A52185070CC
:1008A000891C216310BC08BC184700210278401C39
:1008B000002A04D0491C0278401C002AFAD1080002
:1008C000704770B503001800FFF7EFFF0400AD4D4F
:1008D0000E20287022001900681CFFF72FFFA64980
:1008E000641C601C0A2208632A55FFF7CBFFFFF740
:1008F00077FF70BC08BC184770B59F4C2169491C34
:100900002161E16A0025002907D1216A00291CD054
:10091000E1620A6822628D800D607D2821D07E28E8
:1009200019D0E16A984B8A889A4207D22378002B23
:1009300002D0202358402570891D5054E06A8188D8
:10094000491C818070BC08BC184790A0FFF7B9FF14
:1009500070BC08BC1847FFF729FF257070BC08BCA5
:1009600018470120207070BC08BC1847F3B505007B
:1009700081B0814902980A6910180861C86A002884
:1009800008D1086A002853D0C86202680A620022AF
:10099000828002607848C66AB488B61D029804282E
:1009A00031DD28680090010E7D2948D00202130E27
:1009B0007D2B44D00204120E7D2A40D00006000E8A
:1009C0007D283CD07E293AD07E2B38D07E2A36D066
:1009D0007E2834D0301904226946FFF7AFFE664AFC
:1009E0001078002805D0305D202148403055002087
:1009F0001070241D2404240C2D1D0298001F029049
:100A000002980428CDDC029F7F1E14D328787D280D
:100A10004AD07E283DD05C498C424AD256490A7859
:100A2000002A45D02022504030550020087040E078
:100A300056A0FFF746FF03B0F0BC08BC18470327D9
:100A400028787D2819D07E280CD04F498C4219D2A5
:100A5000494A1178002914D02021484030550020FF
:100A600010700FE0002C04D04348C06A8480FFF768
:100A70009DFE41490020087007E03F4901200870B1
:100A800003E03055641C2404240C6D1C7F1ED7D257
:100A9000B3E7002C04D03848C06A8480FFF786FE94
:100AA00035490020087007E033490120087003E051
:100AB0003055641C2404240C6D1C7F1EA6D203B088
:100AC000F0BC08BC1847F8B51C252B4F7869FFF718
:100AD000ECFE0400354879692200FFF72FFE220062
:100AE000324E0832944219DA31493B69402C0BDB13
:100AF000B869FFF7DAFE05002C48B9692A00FFF74C
:100B00001DFE0020705509E01800E8400007000FA6
:100B1000085C30552D1F641C9442E7DB00203055E3
:100B20002248FFF7CEFEF8BC08BC184770B5040099
:100B30000D002800FFF7B9FE06002800FFF7C1FEF0
:100B400010480D2101704470210A8170210CC17080
:100B5000210E017132002900401DFFF7EFFD06480C
:100B6000761D0663FFF78EFEFFF73AFE70BC21E0AC
:100B7000D410012AA486012A50CD002A05040000C1
:100B80000CCD002AB88E012A070400004552523AC3
:100B90002057696E646F77206F76657272756E206C
:100BA00064657465637465642E2E2E00B89E012AF8
:100BB000DEC6002A08BC184710B50520F2A1FFF7D1
:100BC000B5FF10BC08BC00201847F8B50400FFF7BB
:100BD00037FDF8488021F0A20AF0A0F8F548FFF7A9
:100BE00070FEF5492022E01D0AF058F9002807D0D0
:100BF0000520F2A1FFF79AFFF8BC08BC00201847B7
:100C000026002036307A022807D20520F1A1FFF70E
:100C10008DFFF8BC08BC00201847A088242807D204
:100C20000320F3A1FFF782FFF8BC08BC002018479F
:100C3000F94800254570F94F022138003970F8490C
:100C40002022401CFFF77AFDF64C05206070022040
:100C5000A070E570042020716571A571E5712572A1
:100C60006572A57203F08AFA0300002B1FD01800EA
:100C7000FFF71BFE0206120EE272EB481900FFF7A7
:100C80005DFDE17A2C311E22481C7A54441C3D54EF
:100C9000381903F075FA0119727A19200240481CBC
:100CA0007A54E249D2060AD501220A7008E00820E7
:100CB000DFA1FFF73BFFF8BC08BC002018470D7010
:100CC000D54908630121C902884204D90720DFA160
:100CD000FFF72CFFFEE7FFF7D5FDFFF781FD0024AE
:100CE000E44DE00040194068002801D00AF034FDCE
:100CF000641C042CF5DBF8BC08BC0020184710B5B8
:100D00000520DDA1FFF712FF10BC08BC002018472A
:100D1000F0B58DB005210391841D8088262808D068
:100D20000320DBA1FFF702FF0DB0F0BC08BC0020E0
:100D30001847657820002030C178867809020E4374
:100D40000779407900020743FF211931601CFFF742
:100D5000D2F9D5498E4208D00398D4A1FFF7E6FE18
:100D60000DB0F0BC08BC00201847874208D003989B
:100D7000DAA1FFF7DBFE0DB0F0BC08BC002018477D
:100D8000012D04D0022D28D0032D36D086E000207E
:100D900004AD82001119CE788B78360233430E7978
:100DA0004979360409060E433343AB50401C000416
:100DB000000C0828EDD304A803F039FB0400002C34
:100DC0006CD07C48FFF77DFD2000CEA1FFF7AEFE82
:100DD0000DB0F0BC08BC0020184703F084FB0028CD
:100DE00007D0CDA1FFF7A2FE0DB0F0BC08BC0020DB
:100DF0001847D2A0FFF765FD50E0E078A67861794A
:100E00000002064320790004090608430643201D1A
:100E1000C178A47909020C430179407909040006DC
:100E200001430C43634833008021CEA2009409F0B3
:100E300075FF6048FFF745FD0125AD025D482B00B9
:100E40008021CFA209F06AFF5A48FFF73AFDD44843
:100E5000029029006002A84200D2010002980AF024
:100E6000F9F8002C17D002273D00022C00D22500F3
:100E7000029A2900300003F06AFB002807D0C9A1BC
:100E8000FFF754FE0DB0F0BC08BC002018477619DF
:100E9000641B002CE8D1C8A0FFF713FD5F48242194
:100EA00001705D4A01211163C949401C03F08CFBAC
:100EB000002807D0C7A1FFF739FE0DB0F0BC08BC71
:100EC00000201847FFF7DEFCFFF78AFC0DB0F0BCEE
:100ED00008BC0020184710B54F48C178027911436B
:100EE00007D00F20C1A1FFF721FE10BC08BC0020D5
:100EF00018474A4A0C21117001210163FFF7C2FC17
:100F0000FFF76EFCC048006880680AF025FCFFF718
:100F100097FBFFF787FB10BC08BC0020184710B5F3
:100F20000520BAA1FFF702FE10BC08BC002018473C
:100F300010B5052050A1FFF7F9FD10BC08BC00203A
:100F4000184710B505204CA1FFF7F0FD10BC08BCF8
:100F50000020184710B5811D8088401E0404240C11
:100F60002E480A2202702200491C401CFFF7E6FBB3
:100F70002948641C0463FFF785FCFFF731FC10BCB3
:100F800008BC002018470000496E76616C69642037
:100F9000436F6D6D616E64004A7573742063616C9C
:100FA0006C6564204B49434B5F5741544348444F61
:100FB00047282900F89E012AEFC6002A496E76616B
:100FC0006C6964206D61676963206E756D6265721E
:100FD00000000000496E76616C69642070726F7465
:100FE0006F636F6C2076657273696F6E000000002E
:100FF000506172616D6574657220526571756573BB
:1010000074205061636B6574204C656E6774682052
:101010004572726F7200000050CD002AB88E012A0E
:1010200010C7002AD88E012AE48E012A58D0002A3F
:10103000556E7265636F676E697A656420666C6170
:10104000736820646576696365000000496E7465A5
:10105000726E616C206572726F72202D20726570E5
:101060006C795F627566666572206F7665727275FF
:101070006E000000A810012A466561747572652033
:101080006E6F7420636F6D70696C656420696E00AB
:10109000496E76616C6964207061636B6574206C65
:1010A000656E677468000000ADDE00004750502F89
:1010B000496E666F20636F6D6D616E642066616955
:1010C0006C65642E20496E76616C6964204D6167A1
:1010D0006963204E756D6265720000004750502FA5
:1010E000496E666F20636F6D6D616E642066616925
:1010F0006C65642E20496E76616C696420435243AE
:1011000000000000475050206372656174696F6E83
:10111000206661696C65640053657420616374695D
:10112000766520626F6F7420706172746974696F84
:101130006E206661696C6564000000005365742070
:1011400061637469766520626F6F74207061727478
:101150006974696F6E207375636365737366756C0C
:101160006C7900007A65726F6F75742073746172A8
:10117000742025642C206C656E202564000000001E
:101180007A65726F696E67206F75742025642062BE
:101190007974657320617420612074696D65000045
:1011A000B48A012A5A65726F696E67206F75742060
:1011B0006661696C656400005A65726F6564206FD2
:1011C0007574207375636365737366756C6C7900F1
:1011D00080CD002A506172746974696F6E20696EE7
:1011E000666F206661696C656400000043616E6E25
:1011F0006F74207265736574206265666F72652016
:10120000636C6F73650000000CCD002A53696D702C
:101210006C65207772697465206E6F7420616C6CE8
:101220006F7765640000000010B5E1491220087076
:10123000E049012008631520DFA1FFF777FC10BC0F
:1012400008BC0020184770B5C479DA4D2879002809
:1012500010D0A04207D00F20DDA1FFF767FC70BCC3
:1012600008BC00201847E3A0FFF72BFB70BC08BCAC
:1012700000201847200002F0B5FF002807D0072003
:10128000E7A1FFF753FC70BC08BC002018472C7185
:10129000C7491420087001202863FFF7F3FAFFF70D
:1012A0009FFA70BC08BC0020184710B5C14CE0780C
:1012B000217908430AD003F0B4F800280ED0DBA14E
:1012C000FFF734FC10BC08BC002018470F20DBA13E
:1012D000FFF72CFC10BC08BC002018470020E07071
:1012E0002071B3491620087001202063FFF7CAFA65
:1012F000FFF776FA10BC08BC0020184710B5C0797B
:1013000002F06CFF002806D0D6A1FFF70FFC10BC3E
:1013100008BC00201847A74901208860A44B182268
:101320001A700863FFF7AEFAFFF75AFA10BC08BC50
:101330000020184770B5030008338188891E0A040D
:10134000120CC1799B4CA068012807D00F20CCA1BA
:10135000FFF7ECFB70BC08BC0020184701204002DE
:10136000824207D90320D3A1FFF7E0FB70BC08BC81
:1013700000201847180002F033FF8D4A00211A237D
:101380000225002817D0607904280BD0E160137083
:1013900050702563FFF776FAFFF722FA70BC08BC9D
:1013A00000201847E1600720CAA1FFF7BFFB70BC0F
:1013B00008BC002018470120E060137051702563BD
:1013C000FFF760FAFFF70CFA70BC08BC0020184762
:1013D00070B503000833C5798088801E0204120CA2
:1013E000744CA068012807D00F20C4A1FFF79EFB12
:1013F00070BC08BC00201847E068012807D00F2007
:10140000C9A1FFF793FB70BC08BC00201847290056
:10141000180002F04CFF664902221C2300281CD051
:10142000A07904280DD0012813D0022811D0032858
:101430000FD00720C8A1FFF779FB70BC08BC0020C3
:1014400018470720C4A1FFF771FB70BC08BC00203F
:1014500018470B704870226304E0E5700B700020A1
:1014600048702263FFF70EFAFFF7BAF970BC08BCA8
:1014700000201847F0B587B00026C04C2068C0682F
:101480000AF06AF94B48406A002877D049490120A0
:1014900088704C6A20684862002800D18862002069
:1014A00020604448C069002826D00020069000250E
:1014B000A088002814DDB1480068C0680AF04CF923
:1014C000A088471B802F00DD802761190698891DA1
:1014D0003A00FEF7B8FE0690ED19A088A842EADCB3
:1014E000A7490698884203D0A6A0FFF7EAF93EE094
:1014F000A088801EA08002E0A088801EA080A7791E
:10150000232F26DDA01D0290A0880390A2480490FE
:1015100001A80590002500200190A048E90041584D
:10152000002905D002A80AF018F9012800D10126E7
:10153000019A002A0AD098491D48FFF7FFF81D4874
:1015400001990163FFF79EF9FFF74AF96D1C042D1D
:10155000E1DB002E0BD1781E222805D815494978E9
:10156000002912D0012F10D02000FFF725FB1148D1
:10157000016A21600462406A002887D10D49002079
:10158000887007B0F0BC08BC1847810084484158F7
:1015900020000AF0E2F8EAE7784CFFF76DF82068DF
:1015A000C0680AF0D9F8FFF767F8FFF763FFF4E7C0
:1015B000B88E012A50CD002A506F776572206F6671
:1015C00066206E6F7420737570706F72746564003E
:1015D000416C7265616479206F70656E6564206925
:1015E0006E20646966666572656E74206D6F6465F1
:1015F00000000000416C7265616479206F70656E57
:1016000065642C2069676E6F72696E67206F706504
:101610006E20696E2073616D65206D6F64650000DA
:101620004F70656E206661696C656400436C6F7312
:1016300065206661696C65640000000043616E6E40
:101640006F7420636C6F7365207768656E206E6FB2
:10165000742070726576696F75736C79206F706530
:101660006E6564005365742073656375726974797F
:10167000206D6F6465206661696C65642E000000F2
:101680004E6F207365637572697479206D6F646540
:10169000207265636569766564206265666F726550
:1016A00020706172746974696F6E207461626C6518
:1016B00000000000506172746974696F6E2074617B
:1016C000626C65206C656E6774682065786365651B
:1016D00064656400556E6B6E6F776E206572726F15
:1016E0007220616363657074696E672070617274E3
:1016F0006974696F6E207461626C65004E6F20734F
:1017000065637572697479206D6F646520726563B5
:101710006569766564206265666F7265206F7065C5
:101720006E206D756C7469004E6F20706172746903
:1017300074696F6E207461626C652072656365699F
:10174000766564206265666F7265206F70656E20D5
:101750006D756C74690000004F70656E206D756C5E
:101760007469206661696C65642C20756E6B6E6FA0
:10177000776E206572726F72000000000CCD002A37
:10178000470F00004552523A2043524320696E767B
:10179000616C696400000000B896012AA810012A53
:1017A00084CD002A002802D0FE49006808607047F6
:1017B000F8B50C000F2824D20022FB4F8300FE58FE
:1017C0000DE06968182555434959814206D1182111
:1017D0004A43F64840688018F85006E0521C002E34
:1017E00003D1F24D29689142EBD8FD58002D08D065
:1017F000EF481918280002F045FF002C01D0A86816
:101800002060F8BC08BC18470F280CD28100E648BD
:101810004058002807D0E64A5158002903D00968EB
:10182000002900D0084770470F280CD28100DE48FD
:101830004058002807D0DE4A5158002903D0496893
:10184000002900D0084770470F280ED28100D648E3
:101850004058002809D0D64A5258002A05D092682C
:10186000002A02D0D34BC918104770470F280ED258
:101870008100CD484058002809D0CD4A5258002A4E
:1018800005D0D268002A02D0CA4BC9181047704749
:101890000F2806D28100C4484058002801D0406873
:1018A00070470020704730B40F280DD28300BE4827
:1018B000C058002808D0BE4CE358002B04D01B6948
:1018C000002B01D030BC184730BC70470F280CD219
:1018D0008200B5488058002807D0B54B9A58002A96
:1018E00003D05269002A00D0104770470F280CD24D
:1018F0008200AD488058002807D0AD4B9A58002A86
:1019000003D09269002A00D0104770470F280CD2EC
:101910008200A5488058002807D0A54B9A58002A75
:1019200003D0D269002A00D0104770470F280CD28C
:1019300082009D488058002807D09D4B9A58002A65
:1019400003D0126A002A00D0104770470F280CD22B
:10195000810095484058002807D0954A51580029E1
:1019600003D0496A002902D00847002070470020B0
:1019700070470F280CD281008B484058002807D0B0
:101980008B4A5158002903D0896A002902D00847A0
:1019900000207047002070470F280CD28100824839
:1019A0004058002807D0824A5158002903D0C96AFC
:1019B000002902D0084701207047012070470F28F6
:1019C0000CD2810078484058002807D0784A5158F6
:1019D000002903D0096B002902D008470020704776
:1019E0000020704770B50C0073490F2816D2830091
:1019F0006D48C058002811D06D4DEB58002B0DD00C
:101A00005D6B002D1AD04369002B0FD01E68002E8D
:101A10000CD01E68A64205D1596807E070BC08BC0E
:101A20000020184708331E68002EF2D1002905DB7C
:101A300009F095FE70BC08BC0120184770BC08BCBA
:101A40000020184770B50C005B490F2816D28300A0
:101A50005548C058002811D0554DEB58002B0DD0DB
:101A60009D6B002D1AD04369002B0FD01E68002EED
:101A70000CD01E68A64205D1596807E070BC08BCAE
:101A80000020184708331E68002EF2D1002905DB1C
:101A900009F065FE70BC08BC0120184770BC08BC8A
:101AA0000020184730B40F2812D284003E48005955
:101AB00000280DD03E4D2C59002C09D0E46B002C91
:101AC00009D0002907D0002A05D0A44630BC6047C1
:101AD00030BC0020704730BC0020704730B40F2865
:101AE00012D284003048005900280DD0304D2C59B6
:101AF000002C09D0246C002C09D0002907D0002A22
:101B000005D0A44630BC604730BC0020704730BCD4
:101B10000020704730B40F2812D2840022480059A8
:101B200000280DD0224D2C59002C09D0646C002CBB
:101B300009D0002907D0002A05D0A44630BC604750
:101B400030BC0020704730BC0020704730B40F28F4
:101B500012D284001448005900280DD0144D2C597D
:101B6000002C09D0A46C002C09D0002907D0002A31
:101B700005D0A44630BC604730BC0020704730BC64
:101B8000002070470F2819D282000748805800288B
:101B900014D0074B9A58002A10D0D26C002A0DD0CE
:101BA0001047000014CE002A789F012AF8C7002AA7
:101BB000B49F012AF09F012AFFFFFFFF704730B456
:101BC0000F280DD283005D48C058002808D05C4C17
:101BD000E358002B04D01B6D002B01D030BC1847FC
:101BE00030BC704730B40F280DD283005348C05822
:101BF000002808D0524CE358002B04D05B6D002B1A
:101C000001D030BC184730BC7047F0B40D004D49CE
:101C10000F281FD284004948005900281AD0484E86
:101C20003459002C16D0A66D002E13D04469002C18
:101C30000BD02768002F08D02768AF4201D1616818
:101C400003E008342768002FF6D1002902DBB446F0
:101C5000F0BC6047F0BC7047F0B40D0039490F2864
:101C600021D284003548005900281CD0344E345904
:101C7000002C18D0E66D002E15D0002B13D044692F
:101C8000002C0BD02768002F08D02768AF4201D165
:101C9000616803E008342768002FF6D1002902DBD1
:101CA000B446F0BC6047F0BC70470F280CD28200ED
:101CB00022488058002807D0214B9A58002A03D088
:101CC000126E002A00D0104770470F280CD28200F5
:101CD0001A488058002807D0194B9A58002A03D078
:101CE000526E002A00D0104770470F280ED2820093
:101CF00012488058002809D0114B9A58002A05D064
:101D0000926E002A04D0002902D0104700207047AC
:101D10000020704730B40F280DD283000748C05808
:101D2000002808D0064CE358002B04D0DB6E002BB3
:101D300001D030BC184730BC70470000789F012AA2
:101D4000B49F012AFFFFFFFF70B56424FF4DA8690F
:101D5000C00303D570BC08BC01201847012003F064
:101D6000CDF8641EF3D270BC08BC00201847F748B9
:101D70000021016001610168F54A9143012292034B
:101D80008918016001683F22120291430122D202A8
:101D900089180160EF4941608168C90CC904891C38
:101DA0008160C168C90CC9040931C160EA49416157
:101DB000EA4901610168EA4A11430160E948026A9F
:101DC000FF2101310A430262E74802680A430260C8
:101DD000BAE770B5E548816A0024C90701250029E2
:101DE00005D0016A0462816AA943816204E0416A04
:101DF0004462816A294381624B20000203F066F845
:101E0000DB48816AC90706D0016A0462816A490811
:101E10004900816204E0416A4462816A2943816227
:101E2000D448816AC90708D0016AC909C901016299
:101E3000816A49084900816206E0416AC909C9010D
:101E40004162816A29438162CB48C168890889005F
:101E5000491CC1608168C90706D0016804608168B7
:101E600049084900816004E0416844608168294371
:101E70008160C248816AC9070AD0016AC909C901DB
:101E80000162816A49084900816270BC08BC184738
:101E9000416AC909C9014162816A2943816270BCF2
:101EA00008BC184770B5B148816A2B25C9070124C1
:101EB000002905D0016A0562816AA143816204E0BC
:101EC000416A4562816A214381627D20400202F0BD
:101ED000FDFFA748816AC90706D0016A0562816AC9
:101EE00049084900816204E0416A4562816A2143F0
:101EF0008162A048816AC90709D0016AC909C9017C
:101F000013310162816A49084900816207E0416A30
:101F1000C909C90113314162816A2143816296482E
:101F20008168CA071321002A06D00268016081680F
:101F300049084900816004E04268416081682143AA
:101F400081608E48816AC9070BD0016AC909C9013D
:101F50002B310162816A49084900816270BC08BC6A
:101F60001847416AC909C9012B314162816A21437D
:101F7000816270BC08BC184781488249086048608B
:101F80008860C86048618861C86108627E490860ED
:101F900048608860C860086148618861C8610862FB
:101FA00048628862C8620863486388637748426809
:101FB00077490A40521D426082680A40521D826081
:101FC000C2680A40521DC26002690A40521D026185
:101FD00042690A40521D426182690A40521D826173
:101FE000C2690A40521DC261026A0A40521D026261
:101FF000426A0A40D21D4262826A0A40521D8262CF
:10200000C26A0A40521DC262026B0A40D21D0263BC
:10201000426B0A40921D4263826B0A40921D8263AA
:10202000C26B0A40521DC263704755485949086047
:1020300048608860C8605849086048608860C86027
:1020400008615648426852490A40921D42608268BF
:102050000A40921D8260C2680A40921DC2600269F5
:102060000A40921D026142690A40921D42614C4839
:10207000016AC90AC90235310162704749480F2116
:1020800001604949494A116051609160484A1160B4
:1020900051609160D16042683D490A40521D4260E2
:1020A00082680A40121D8260C2680A40121DC26026
:1020B00002690A40121D0261704770B53D490A6A03
:1020C000402002430A624A6A02434A623A49096866
:1020D000394A014311603849496801435160374921
:1020E0000968364A01431160344949680143516027
:1020F00032498968014391603049C9680143D16020
:102100002E490969014311612D49096A2C4A01438D
:1021100011622B49496A014351622A490968294AD7
:10212000014311602849096A274A0143116227497E
:102130000968264A014311602549096A244A014376
:1021400011622349496A0143516243E040319000E2
:1021500000C00F000E1003000000C00000100000BF
:102160000000100080349000C034900040279000A0
:1021700080249000C02D900040269000C022900046
:102180000082000000363001003830018038300114
:10219000F0FF000000364001003840018038400167
:1021A0004000F00080385001F481000000365001FA
:1021B0000038500100249000C020900000219000C1
:1021C00080209000002E9000C023900000259000F9
:1021D000C0219000FA490968F94A01431160F849A1
:1021E000496801435160F749096AF74BF54A1943B9
:1021F0001162F6490968F54A01431160F3494968DB
:1022000001435160F149896801439160EF49C96810
:102210000143D160ED49096901431161EB49496905
:1022200001435161E949096A01431162E749496A79
:1022300001435162E549896A01439162E349C96AF0
:102240000143D162E149096B01431163DF49496BE5
:1022500001435163DD49896B01439163DB49C96BDC
:102260000143D163DA490A6A02430A62D9490A6A18
:1022700002430A620A6802430A60D7490A680243B5
:102280000A600A6A02430A62D4490A6802430A6081
:10229000D349CA6A0243CA62D24A11680143116033
:1022A000D149896AD04C0143A162D0490C6A0443E8
:1022B0000C62CF490C6904430C614C6904434C61C6
:1022C0008C6904438C61CB490C6804430C608C68B6
:1022D0001C438C60BA4B1B6AB94C03432362B84B56
:1022E0005B6A03436362C44B1C6804431C60C34CB9
:1022F000E56A50231D43E562146A1C4314620A6AAE
:1023000002430A62FFF738FEFFF78FFEFFF7B6FEC3
:10231000BB490A2048600868400840000122104379
:102320000860B849F020886170BC08BC1847F8B54F
:102330004B20000202F0CAFDB34940208861B34837
:1023400002F0DCFDB248016A012529430162016AFD
:102350000226B1430162AF48AF4F3861AF4802F087
:10236000B5FDAF48016810242143016001680422D3
:1023700011430160AB480068C00704D0FFF729FD96
:10238000A84900200860FFF7F2FC00287ED03868DA
:1023900020433860786820437860FFF783FDA24AC5
:1023A000106820431060A148016821430160416822
:1023B00021434160816821438160C1682143C1603C
:1023C0000169214301619A490B6823430B604B6803
:1023D00023434B60016A214301627C480168214329
:1023E0000160416821434160816821438160C16887
:1023F0002143C16001692143016141692143416178
:10240000016A21430162416A21434162816A214399
:102410008162C16A2143C162016B21430163416B47
:1024200021434163816B21438163C16B2143C163BC
:102430006749096A664B214319627E49096A7D4BE7
:10244000214319627C49096A7B4B214319627A490D
:10245000496A2143596279490968784B21431960D7
:102460005E4909685D4B214319605A490968594B17
:102470002143196058490968574B21431960554950
:10248000096A544B21431962534900E08CE0096A00
:10249000514B214319624A49096A494B2143196248
:1024A00054490B6823430B608B6823438B6050496E
:1024B0000C614C618C614A49CC624A490968494BBC
:1024C00021431960816A2143816244490C60474974
:1024D0000C624C625A49896A594B31439962594995
:1024E0000968594B1943574B1960D46257490C601E
:1024F0005749096A40221143554A11625549564AC3
:10250000116256490A6A22430A6284625448416B46
:102510002943416353484168294341604C48006A5C
:102520000121090308434A4908624948006A4E49A3
:102530000843474908624D494D4881604D49416112
:102540004D4A0021D1624D4981614D4901624D4999
:1025500001634D484D4908604D495120C8601848F5
:10256000006A1749204308621548406A20434862C0
:102570004848016A214301621F4801682143016004
:102580001948016A21430162416A21434162816A1B
:102590002143816240480078002801D0FFF78DFD7B
:1025A000F8BC08BC01201847F8BC08BC002018473C
:1025B000BDE610B5FFF70DFC10BC08BC18470000C5
:1025C00040259000C02590000002000040219000AE
:1025D000C036900080269000C02690008022900097
:1025E0004027900080279000C0219000802B900011
:1025F00040269000802590000029900080249000C3
:102600004000B000C0033018000020008813000014
:10261000802E900011080000C0279000786900000B
:10262000C02E90004031900080209000002190004A
:10263000C0209000C023900000249000002C900047
:10264000C02290004030900000100000002E90004A
:10265000C02F900010010000802D900000279000F6
:1026600080000028C000002800080000FFFEFF9343
:102670000000000400800000800100040100FC173D
:1026800000042035C70300000500FF80800000041F
:1026900080219000C02A900018CE002A70B5050055
:1026A000CC48416801290CD0816B012909D0002157
:1026B00034224A431418E269002A05D0491C022931
:1026C000F6DB70BC08BC1847200000F0A4FA002814
:1026D000F7D02035C04800F021FD687A0028F0D0FE
:1026E000200000F098FA0028F4D170BC08BC18470C
:1026F00010B501290FD003290AD1B84C217801293E
:1027000001D1FFF7CBFFE068002801D009F024F8E1
:1027100010BC08BC18470021C0690C2803D0FF3842
:10272000E13803D101E0402100E0AD49AD4A0B0A98
:1027300050680171437190690171090A417110BCBF
:1027400008BC184700218161A4494968002900D0CC
:1027500008477047A149896808479F49C860704782
:1027600010B50400A068FFF799FF9C492000896814
:1027700008F0F3FF10BC08BC1847FFB583B00C9DF0
:1027800014001F0095480570934E002901D0B068D1
:10279000C161954993484160944981619448954944
:1027A00048609548954A506095483060D160012056
:1027B00001F030FA884800F089FC8848039981606C
:1027C000002C00D04460002F00D0C760F06801AA40
:1027D00002A900F019FD8B49019801273B008842AE
:1027E00000D00023884886607E494A689278027447
:1027F000864A42610022826120242754844C44622C
:10280000002D3CD0002034214143724A8C18A66030
:1028100074498969897821747E490203511861617C
:102820007D49A161002220210A557C496162E26153
:10283000401C0006000E0228E5D3002B2FD066486E
:1028400000F085FB76480772F0680022012101F054
:1028500091F80122F068110001F08CF8F068002274
:10286000022101F087F8F0680122022101F082F8CC
:102870005948012100F046F9012D0DD00FE0694CB7
:10288000A6608869807820746261A2612020025568
:1028900065486062E261D0E7A068FFF7FFFE07B01D
:1028A000F0BC08BC4C48184710B54B4800F03FFC42
:1028B00010BC08BC184770B50500534C606801286F
:1028C00005D1454800F02AFC60680128F9D0A069CC
:1028D000411CA16161690D547E2D02D1A0690128BE
:1028E00004D8A06901218903884202D3200000F0A6
:1028F00092F970BC08BC184770B505000E00424C38
:102900006068012805D1344800F008FC606801289F
:10291000F9D0002D07D1002E05D0606932002900C2
:1029200008F0F8FA00E06561A661200000F073F994
:102930006068012805D1284800F0F0FB6068012894
:10294000F9D03248606170BC08BC18472E48406816
:10295000012805D02048806B012801D00020704755
:1029600001207047F8B506000F002E4C250068685E
:10297000012805D1184800F0D1FB68680128F9D07A
:10298000002E03D1002F01D0666100E06661A761CF
:10299000200000F040F9F8BC08BC002018470021D6
:1029A000C1617047164A002800D01081002900D06C
:1029B00051817047002A08D1114A002801D013899B
:1029C0000380002901D05089088070470021C1612F
:1029D000806863E694E0012AB0CE002A1CCE002A6B
:1029E0000002000060CE002A50CE002A57CE002AF6
:1029F00047CE002A88CE002A3ECE002AA0CE002A4A
:102A00002CCE002AEFCDAB002CE0012A2CA0012A0D
:102A10004527002AFCE0012A001000006127002A57
:102A2000D0CE002A60E0012A5527002A406803E042
:102A30000068491E0904090C002801D00029F7D1BB
:102A400070474068002806D0426852798A4202D016
:102A500000680028F8D17047C06AC0687047C06A33
:102A6000C068C068002806D0426892788A4203D0C5
:102A700000680028F8D1002070478068002808D03E
:102A800003898B4202D1837A934203D000680028E5
:102A9000F6D1002070470269002A00D01047704725
:102AA00001620421F7E7F0B5060083B0F0684368DF
:102AB0009C788C4220D1D97891421DD1C468002CD9
:102AC00015D0002561688878C2094B790F791B02FF
:102AD0003B436F4628C7C9788B070107B0689B0F37
:102AE000C068090F00F02FFD2468002CEAD103B064
:102AF000F0BC08BC0020184703B0F0BC08BC0020A4
:102B0000C0431847F8B504000E000025200020300F
:102B10000090407A002807D0002E05D0B04203D0A4
:102B2000681EF8BC08BC1847B0425FD0002E25D004
:102B300031002000FFF785FF0700002F0DD0F86857
:102B40000022406881783800FFF7ADFF002809DADD
:102B5000F8BC08BC0020C0431847F8BC08BC0020E3
:102B6000C043184700984672E762002060627868A8
:102B7000007A41002000FFF793FF21E00099002038
:102B80004872E06200212000FFF78AFF0126E0681A
:102B90000022310000F09DFEE0680022310000F0CC
:102BA00043FDE0680122310000F093FEE06801225D
:102BB000310000F039FD761C3606360E032EE6D3C2
:102BC00003212000FFF767FFE06800F091FF002875
:102BD00005D0012805D0022804D1FF4D02E0402590
:102BE00000E00825280000F08CFF10E0E06800F00D
:102BF0007FFF002805D0012805D0022804D1F64D1A
:102C000002E0402500E00825280000F07AFFF8BC2B
:102C100008BC0020184710B5F04901600021416050
:102C2000C1618168002908D0CA68C2602031497A30
:102C3000002908D1017C090705D00321416010BC9F
:102C400008BC081F184700F0FBFD10BC08BC184763
:102C500070B506001D00E24C30003430002900D170
:102C600034304168012904D042618561FFF7D3FF08
:102C70000400201E00DB280070BC08BC18470200BE
:102C80000B0030320121E3E7F8B507000E00B01C5D
:102C90000025D34C4178012904D0022905D003290D
:102CA0001BD10EE03D682C7817E001783800FFF763
:102CB000BDFE002811D04568E878A97804020C43CD
:102CC0000BE0027870793379010219433800FFF77D
:102CD000D4FE002801D045682C78002D0FD0F07963
:102CE000B17900020843A04200DA040023002A0060
:102CF00001213800FFF7ACFFF8BC08BC18472000E2
:102D0000F8BC08BC184710B54A780A2A4AD2130002
:102D10007B441B79DB189F44044D454D4512264DDD
:102D20002B3ACA798B7911021943022942D3002127
:102D300001860221FFF7A3FF10BC08BC1847CA7820
:102D4000897813020B43010020310A00497A0029D7
:102D500030D11906090E1172C06800F0B3FB10BC27
:102D600008BC00201847FFF78FFF10BC08BC1847AD
:102D7000CA798B79110219431CD0010020314A7A9B
:102D80000A740121FFF77BFF10BC08BC1847CA7802
:102D90008B78110219430906090EFFF7B3FE10BC28
:102DA00008BC18474269002A04D008F0D7FC10BCC0
:102DB00008BC184710BC08BC0020C043184770B5B9
:102DC00005000C0060792279010211432800FFF709
:102DD00043FE617803294AD004DC002911D001297F
:102DE00004D144E00A291DD00B292CD000283ED064
:102DF0000269002A3BD0210008F0B0FC70BC08BC7E
:102E00001847002833D0E079A1790002084302284E
:102E10002DD30020288602212800FFF730FF70BC48
:102E200008BC1847002822D0E179A2790902114391
:102E30001DD0017D3020415501212800FFF71FFFE3
:102E400070BC08BC1847E86A002810D0E178A27866
:102E50002379090211430A066179120E0902194306
:102E60000906090EFFF71FFE70BC08BC184770BCAE
:102E700008BC0020C043184710B54B689B781C075E
:102E8000240FDB090A61002A05D0C0681A0021005E
:102E900000F025FB04E0C0681A00210000F037FBB9
:102EA00010BC08BC0020184770B505000C00607904
:102EB0002279010211432800FFF7D1FD0023DB43F3
:102EC000002811D06178002912D0012921D00329CE
:102ED0002CD00C292FD0C268002A2CD0210008F059
:102EE0003DFC70BC08BC184770BC180008BC1847F3
:102EF000E179A2790902114302291CD30069C007B4
:102F0000C00F288602212800FFF7B9FE70BC08BC5C
:102F10001847E178A278090211430CD10100002280
:102F20002800FFF7A9FF70BC08BC1847E178A27819
:102F30000902114303D070BC180008BC18470100F7
:102F400001222800FFF798FF70BC08BC184770B535
:102F50000400E06801F0DEFF0600A0690025B04231
:102F600022D0E561002E16D0656264212000FFF7B3
:102F700097FDE06801F0DEFF002804D01949200029
:102F8000FFF78EFD0BE000212000FFF789FDE068D0
:102F900001F0D5FF03E000212000FFF781FDA661CD
:102FA00000212000FFF777FDE06800F0A1FD002878
:102FB00024D0012824D0022824D00020E1698142B5
:102FC00005D06562E06101212000FFF764FDE06843
:102FD00000F09AFD050007E0000200005155524242
:102FE000FFFFFFFFDC050000606AA8421FD0002D34
:102FF0000AD000212000FFF753FD13E00C20DDE78D
:103000000120DBE75D48D9E7E06A002806D0406888
:10301000007A41002000FFF743FD03E0002120007B
:10302000FFF73EFD656205212000FFF734FD70BC0F
:1030300008BC184710B504002000FFF788FF0021E6
:103040002000FFF75FFD002128200155E06800F017
:1030500039FA0320E066A06310BC08BC184710B51D
:103060000400474B0878C006C00E04D0012807D0E2
:1030700002280ED109E02000FFF745FE030008E01A
:103080002000FFF79CFE030003E02000FFF70CFF89
:103090000300002B09DD2200042330320021200030
:1030A000FFF7D6FD10BC08BC1847002B07D0002244
:1030B000E068110000F013FA10BC08BC18470021AA
:1030C0002000FFF7DCFD10BC08BC184770B50400F9
:1030D0000025A561E561200020300572E56245729A
:1030E00000212000FFF7DCFCE4638021442001552F
:1030F000A5650320A063246778210D558C210D510F
:10310000E066204AE068210000F0A2F8E0680122B1
:10311000002100F091FC70BC08BC184710B50028D5
:1031200002D0C06800F0A4F910BC08BC184710B564
:103130000400A06B012805D12000FFF7EFFFA06B72
:103140000128F9D000212000FFF7DCFCE06800F046
:103150004BFC0020A061E0612034207210BC08BC50
:10316000184710B504002000FFF7D8FF2034607A1C
:10317000002800D0012010BC08BC1847E001000066
:10318000FFFFFFFF7CCF002AF84840787047F8B572
:10319000FF21F748813107F07FFFC321F5488901FE
:1031A00007F07AFF002501220021F14BE801C71842
:1031B000A801F04B28188001C618880108184001A2
:1031C0003318880138188360002044011A51401CCC
:1031D0004028FADB491C0229EFDB6D1C032DE3DBE1
:1031E000E549E348016001640168E44A1143016074
:1031F000FF21813101F0C6FEC321DE48890101F0C3
:10320000C1FEF8BC08BC184710B40023D74CA47802
:10321000002C01D0DA4805E08300DA48C05880303D
:10322000036880680B60106010BC704700B582B006
:103230000021019100916A4601A9FFF7E5FFD04AFC
:1032400000990120914200D0002002B008BC18472C
:10325000F8B506000027C54882600C207043CA4AB2
:103260008018816002F078F8002808D03000FFF75D
:10327000DDFF002806D1300001F07AFE02E03000C8
:1032800001F076FEBF4DB4002859FF308130816ACD
:1032900089088900891C81623000FFF778FF28596E
:1032A000B349FF304130816128590023FF3041305C
:1032B00083602859FF308130826A08218A43826204
:1032C0002859FF308130C362285980308161FFF76F
:1032D0005BFF012806D12859FF30413001680122E7
:1032E000114301603800F8BC08BC1847F8B5070066
:1032F000A44DBC0028590121FF308130C1622959F9
:10330000FF318131C86AC007C00F0028FAD19F4839
:103310000126760300902859FF304130016831437F
:1033200001600098082101F027FE91498F4828315B
:1033300006C9143006C02859FF30413000683040BB
:103340000028E8D02859FF3041300168B1430160BE
:103350000C2047438C4838188068844989684A683B
:103360008B4908F0FBF9F8BC08BC1847F0B585B0EC
:10337000810084484058FF308130C16B0091009932
:10338000C16300200190002601987949C0014018CE
:1033900004900198810140187649800140180390FB
:1033A00001983101091801208840009901422FD06D
:1033B0000498B1014018402101F0DEFDB1010398ED
:1033C000711849014418029400250027202120008B
:1033D00001F0D2FD6068000CC719002D02D16068B1
:1033E00005062D0E2068012801D0246800E0002485
:1033F000002CEBD10298C469A069C11BE16160692E
:1034000001F0BAFD002D14D0802D1BD00320606088
:10341000761C3606360E012EC2D90198401C0006D5
:10342000000E019001980328ADD305B0F0BC08BC94
:10343000184702206060616A0029E9D0200008F086
:103440008CF9E5E701206060E2E70C2148434E4932
:10345000401880684549896889680847F5E70C2164
:1034600048434949401880684049896809680847C5
:1034700070B505004348A90041580800FF314131AB
:103480004C680A00FF308130C66A5460600602D57D
:103490002800FFF7E4FFE00502D52800FFF7DEFF74
:1034A000600702D52800FFF7D0FFE00702D0280010
:1034B000FFF75CFFF00702D02800FFF717FF70BC92
:1034C00008BC184701234A061B06D2182D4B800062
:1034D0001858FF304130426124480170704710B4E1
:1034E00003000020002903D0002A03D0294A02E06B
:1034F000294A00E001229C00224B89001B59FF3120
:10350000C1315C58944314435C5010BC704730B4D4
:10351000040000200023002904D0002A04D01F4A00
:10352000154B03E01C4A01E041224023A500154C45
:1035300089006459FF31C1316558134095431D43DB
:10354000655030BC7047F8B505000C0016001F0030
:1035500000200090002C23D0032C03D2022E01D295
:10356000022D21D3F8BC08BC0320184788CF002ABD
:103570000008022A8009022A0000400000800000A2
:10358000EFCDAB0068D0002AA440022A2808022A06
:103590009CCF002A00000100010001000000410052
:1035A000F8BC08BC00201847012E06D02800FFF701
:1035B0003DFE002811D0002010E02800FFF736FE65
:1035C000002801D0002001E001208005B904401846
:1035D0000121C9054118FA4804E04020B90041180A
:1035E0008031F848069AE3011704F74A9B18B201A4
:1035F0009F50079E01277F07012E11D09E583E4302
:103600009E50F24AAB00D358A200FF32C1329C5800
:10361000014084430C439C500098F8BC08BC1847F8
:103620009E58BE439E50ECE770B40024032903D299
:10363000022A01D2022801D3032413E0E24ECD0175
:103640000023AD199601AB5100290BD0012A0CD0F3
:1036500080228300DD48C3588800FF30C1301958EC
:1036600091431950200070BC7047D94AF1E7D948FE
:10367000C0687047F0B583B08C460193D64D840185
:10368000D74900198001401861468C010919D34FB0
:103690004901461802906D1C01208003834200D22C
:1036A00018006901741800212160A160E1602161A6
:1036B0006161A161E161010480316160002D03DD80
:1036C000691E490171180C60A260A168090B090309
:1036D000E160E168C919E160E168C9192161216906
:1036E000C91961616169C919A1611B1A1218002BFE
:1036F00001D03F2DCFDB089800282CD06046012850
:1037000029D1FFF7B4FF0100019807F0BFFE00299F
:1037100021D1019800281ED0681C1CD06D1C029974
:1037200041204001091868010C1800202060A060A9
:10373000E06020616061A061E06180206060002D38
:1037400003DD6D1E680108180460A648A060E060F3
:1037500020616061A0610120206060680121C903CF
:103760000843606003B0F0BC08BC1847FFB5050013
:1037700083B00D980C00160006998C46924AE10120
:103780008918B2018F1831010A1901219140029163
:103790008E4BAD00002C0CD15959FF318131C96AD3
:1037A000C907C90F002904D007B0F0BC08BC052028
:1037B00018470C9901221205914204D907B0F0BCB8
:1037C00008BC0320184781494959FF318131896B71
:1037D000029A1140002904D007B0F0BC08BC0720B1
:1037E000184700900C9B310020006246FFF742FF13
:1037F000A001201881017A480818B1017118490107
:103800004618BE600020F8600C99069801F0BAFBDB
:10381000002460013018202101F0B4FB641C412C0D
:10382000F7D34021380001F0ADFB684902984959AF
:10383000FF318131086307B0F0BC08BC0020184795
:10384000F0B583B00400E768207C05072D0FC6099A
:1038500060698446A2692020035D032D04D303B070
:10386000F0BC08BC032018475849B8000958A80004
:10387000FF30C13009580120C005012E00D0802042
:1038800001420FD068460CC0320029003800634660
:10389000FFF76CFF00280AD00321616003B0F0BC81
:1038A00008BC184703B0F0BC08BC0720184701212A
:1038B00061600021E161A901494A691889018918FB
:1038C000B201B21852018918CC6103B0F0BC08BC37
:1038D0001847F7B50F0082B0049901240901C919EE
:1038E0008C40860039488059FF308130806B204001
:1038F00001900198002838D03349F8014118049804
:1039000080010818402101F037FB0025B801344937
:1039100038188001411804988201801840010F185E
:1039200068013818202101F027FB6D1C412DF7D3C9
:10393000F869019900290FD0244B9959FF31813141
:103940004C639959FF3181314A6B2240002AFBD1E7
:10395000896B21400029F0D1002806D00321416065
:10396000416A002901D007F0F8FE05B0F0BC08BCA0
:103970000020184710B41201521801219140134C35
:103980008300E058FF308130806B084000280ED063
:10399000E058FF3081304163E058FF308130426BA6
:1039A0000A40002AFBD1806B08400028F0D1E05883
:1039B000FF308130C16BC16310BC00207047000034
:1039C0000000FFFFFFFF00000008022A68D0002A65
:1039D0000000800088CF002AFFFFFFFF00100000DA
:1039E0008009022A98CF002A70B50500002600241D
:1039F000220031002800FFF76CFF641C2406240E0F
:103A0000022CF5D3761C3606360E032EEFD3002695
:103A10000024220031002800FFF706FE641C240663
:103A2000240E022CF5D3761C3606360E032EEFD369
:103A300070BC08BC00201847F0B40025022901D250
:103A4000022802D3F0BC03207047814C635C002B3A
:103A500002D0F0BC062070477E4B002A00D07E4B7F
:103A60007E4E7F4A800000290AD017588037BE60FA
:103A700010588030C360012060542800F0BC7047AB
:103A8000175880373E60105880304360F3E70229B2
:103A900001D2022801D3032070478200704B00201E
:103AA000002905D09A588032D060694A5054704736
:103AB0009A5880325060F8E70022022901D2022889
:103AC00001D303207047664B8000002902D00129F2
:103AD00006D00AE01858803040680202120A04E05A
:103AE00018588030C0680202120A5C48801A704779
:103AF0005B4980000858FF30813040680001800F2A
:103B000070475849C8607047554980000858FF30D1
:103B10008130406880210840002800D00120000644
:103B2000000E70474E4980000858FF3081304068D1
:103B30000005800F7047810049484058FF304130F0
:103B400001680122114301607047F8B50025002487
:103B5000454E0904891987004148C259FF32413254
:103B6000116309E03E49C959FF3141310D6B2E0007
:103B70000640012001F00FFC01208007864205D19C
:103B80002100FF22641CF5329142EBD32804F8BCDB
:103B900008BC000E1847FFB517001E0081B00024B6
:103BA000314DFF2E09D001A803C8FFF7CEFF000654
:103BB000000EB0433E40064300E03E000298032161
:103BC000000480194907401801998E0024498A5938
:103BD000FF32413210632F0008E021488059FF3046
:103BE0004130056B3D40012001F0D5FBBD4205D1C0
:103BF0002000FF21641CF5318842EED305B0F0BCF3
:103C000008BC184710B501F09EFA10BC08BC0006AD
:103C1000000E184713494870704770B506000C0035
:103C2000150000213000FFF732FF01213000FFF7BF
:103C30002EFF0B4AB000115880310C6010588030B4
:103C4000856070BC08BC1847064988707047000042
:103C50008BCF002A000000C0000000C1FFFFFF0062
:103C600068D0002A88CF002A0000004010B5012447
:103C7000002802D00024FCF796FB200010BC08BCF2
:103C8000184710B50024FF2144221B310020FCF707
:103C9000D9FB002800D10124EB48FFF7E7FF002CF7
:103CA00003D010BC08BC0120184710BC08BC002081
:103CB000184710B5002402210020FCF78DFB0028D6
:103CC00000D101240020FCF79FFB02210120FCF71A
:103CD00083FB002800D1641C0120FCF795FB200029
:103CE00010BC08BC1847F8B506000D0000240020E1
:103CF00000900A2201213000FCF7ECFB002800D1E3
:103D00000124022130006A46FCF7C0FB002800D1E4
:103D1000641C684600780007000F28602000F8BC8B
:103D200008BC1847C949087000207047C7490020DF
:103D300008707047F8B50500002400200090C34EBD
:103D40003078322804D02870F8BC08BC002018470E
:103D5000022100206A46FCF799FB002800D12124AB
:103D6000FFF7E4FF002800D02124307828702000DD
:103D7000F8BC08BC184738B5002400200090FF2587
:103D8000E63570222900FCF75DFB002800D10124F4
:103D9000290000206A46FCF779FB002800D0641C4B
:103DA00068460078800722D552224F210020FCF778
:103DB00049FB002800D1641C002155220800FCF7B3
:103DC00041FB002800D1641CFFF75BFF041952225D
:103DD0004F210120FCF736FB002800D1641C55223E
:103DE00000210120FCF72EFB002800D1641C002CD0
:103DF00003D038BC08BC0120184738BC08BC0020E0
:103E0000184770B50024002201211000FCF782FB46
:103E1000FF257735852229000020FCF713FB0028B9
:103E200000D10124B02229000020FCF70BFB002860
:103E300000D1641CC02229000020FCF703FB0028ED
:103E400000D1641C902229000020FCF7FBFA002816
:103E500000D1641C002C12D15A224F210020FCF703
:103E6000F1FA002800D101245A224F210120FCF749
:103E7000E9FA002800D1641C75487649C86001221F
:103E800011000020FCF746FBFF2140221B310020DF
:103E9000FCF7D8FA002800D1641C002C03D070BCB9
:103EA00008BC0120184770BC08BC0020184710B59A
:103EB00082B00020019032200090FFF7FAFE04004B
:103EC000002001A9FFF70FFF0419FFF7DAFE04191C
:103ED000012001A9FFF707FF0419FFF74CFF0419A0
:103EE000FFF78FFF041901210022080001F070FA8A
:103EF00004196846FFF71EFF0419694608785649F9
:103F000080004018019940182038807F01F068FA3D
:103F10000019002804D002B010BC08BC01201847CA
:103F200002B010BC08BC0020184738B50025009529
:103F30000024652100206A46FCF7A8FA00282CD04E
:103F4000684602781020024365210020FCF77AFAC7
:103F5000002826D00095642100206A46FCF796FAD6
:103F6000002822D0684600784206520E8032642132
:103F70000020FCF767FA00281BD00095402565213A
:103F800000206A46FCF782FA002816D068460078BE
:103F90002840800915D0012416E038BC08BC012057
:103FA000184738BC08BC0120184738BC08BC0120A1
:103FB000184738BC08BC0120184738BC08BC012091
:103FC00018476420FCF7EFF9002CD8D038BC08BCA7
:103FD0000020184738B500250095002464210020F2
:103FE0006A46FCF753FA002820D06846007842065B
:103FF000520E64210020FCF725FA00281AD0009503
:104000004025652100206A46FCF740FA002815D0BB
:10401000684600782840800914D06420FCF7C3F972
:10402000002CEED038BC08BC0020184738BC08BCB7
:104030000120184738BC08BC0120184738BC08BC10
:10404000012018470124EBE7C05D0000403A022A36
:104050000908000000289000A4CF002A044C05495C
:104060008C4204D200202060241D8C42FBD3704778
:1040700098D0002AEC4F022AF0B5FFB082B00500BC
:104080000024FA4F0123786800216A4600F05CFCA6
:10409000002805D000207FB002B0F0BC08BC184753
:1040A00070AB9878DA799979120211431A7A5B7AAF
:1040B00012041B061A431143A84201D10800EAE783
:1040C00070AB987CDA7D997D120211431A7E5B7E7B
:1040D00012041B061A431143A84201D10800DAE773
:1040E00078AB9878DA799979120211431A7A5B7A67
:1040F00012041B061A431143A84201D10800CAE763
:1041000078AB997CDA7D987D120210431A7E5B7E33
:1041100012041B061A431043A942BCD0060005290D
:1041200001D00020B7E77868A11901236A4600F0A2
:104130000BFC002801D00020ADE770AB9978DA794C
:104140009879120210431A7A5B7A12041B061A43FA
:10415000104332191018A9429DD070AA907CD17DCD
:10416000947D09020C43117E527E0904120611430C
:104170000C430528D7D000208DE77047BCA07047BE
:10418000F0B50022BC4940230C0049105B00C8294F
:10419000FBDC6343551C81540A126C1C42550022FF
:1041A000002917DD1D042D0EAE461D021E062D0E24
:1041B000360E1F0EAC462300641CC6547546631CA5
:1041C000055565465C1CC5542300641CC754521C2D
:1041D0008A42F0DB2000F0BC08BC18470020704782
:1041E0000020704710B50400FCF746FA042C03D0F9
:1041F00010BC08BC0720184710BC08BC002018479A
:1042000070B50025994C6068002803D070BC08BCCC
:1042100000201847FCF730FA0021280000F056FA79
:10422000606000280CD0FCF727FA606800F0D2FD2F
:10423000162809D000280CD070BC08BC07201847ED
:1042400070BC08BC072018470020A06070BC08BCE8
:104250001847FCF711FA0121280000F037FAA06096
:10426000FCF70AFA0221280000F030FAE060FCF7BF
:1042700003FA0421280000F029FA2061FCF7FCF978
:104280000521280000F022FA6061FCF7F5F906210B
:10429000280000F01BFAA061FCF7EEF907212800C6
:1042A00000F014FAE06170BC08BC0020184770B53B
:1042B0000D001400FFF7A4FF072801D0002004E040
:1042C00070BC08BC07201847401CA042FCD3AD1EA0
:1042D000272D71D2280078440079001887441317DD
:1042E0001B47509D9D544C58645C60214125686D6E
:1042F0009D9D9D9D9D9D9D9D9D9D9D9D9D71767C62
:104300009D82888E940059490720087081E05749A2
:10431000072008707DE055480121017000210162ED
:1043200077E052490720087073E0504C002020705D
:104330000B20FFF7A1FE002801D0206269E00C20CD
:10434000FFF79AFE002801D0206262E00E20FFF7FE
:1043500093FE002801D020625BE070BC08BC0720FF
:1043600018474248012101700021016251E03F4994
:104370000020087008624CE03C490720087048E0C3
:104380003A490720087044E038490720087040E0A7
:104390003649072008703CE034490720087038E0AF
:1043A00032490720087034E030490720087030E0B7
:1043B0002E49072008702CE02FE02C4907200870B8
:1043C00027E02A4800210170016222E027480121EC
:1043D0000170002101621CE02448022101700021CB
:1043E000016216E02148032101700021016210E002
:1043F0001E4804210170002101620AE01B480521CA
:1044000001700021016204E01848062101700021BA
:10441000016270BC08BC0020184770BC08BC0720B3
:10442000184700207047002070470720704710B5DC
:1044300088B00E490A78072A08D213007B441B79FA
:10444000DB189F441D080A0C0E101B0008B010BC9E
:1044500008BC002018478C6813E0CC6811E00C6998
:104460000FE04C690DE08C690BE00000ACCF002A36
:10447000654D4D430000000000080000CC6900E0DD
:104480004C68002C23D00168019141680291816839
:104490000391C06804900020059006906946087753
:1044A000FCF7EAF8200001A900F0EDFC0300002B66
:1044B00012D0674998000858802100906F4865A283
:1044C00006F02CFC08B010BC08BC0720184708B048
:1044D00010BC08BC0720184708B010BC08BC00205E
:1044E00018470720704710B565480178072908D29A
:1044F0000A007A441279921897441307090B0D0F9A
:10450000110010BC08BC0720184784680AE0C46882
:1045100008E0046906E0446904E0846902E0C469D3
:1045200000E04468002C0AD0FCF7A6F8200000F058
:1045300051FC002807D010BC08BC0720184710BC4D
:1045400008BC0720184710BC08BC00201847F8B565
:1045500006000D0017004A480178072908D20A0012
:104560007A441279921897441307090B0D0F110022
:10457000F8BC08BC0720184784680AE0C46808E053
:10458000046906E0446904E0846902E0C46900E06B
:104590004468002C0ED0FCF76FF82B041B0C3A007B
:1045A0003100200000F047FA002807D0F8BC08BC12
:1045B00007201847F8BC08BC07201847F8BC08BCFF
:1045C000002018470720704770B590B006000D0016
:1045D0002B480178072908D20A007A4412799218E8
:1045E000974414080A0C0E10120010B070BC08BCDE
:1045F0000020184784680AE0C46808E0046906E0FF
:10460000446904E0846902E0C46900E04468002C65
:104610000CD0FCF731F82000694600F0F8F80028CB
:1046200009D010B070BC08BC0720184710B070BC8F
:1046300008BC07201847402230006946FCF77EF886
:1046400028684030286010B070BC08BC00201847B3
:10465000D0CF002A475050206372656174696F6E35
:10466000206661696C65642E205344434320457283
:10467000726F722025643A2025730000F89E012A8B
:10468000ACCF002A10B501F0A1F910BC08BC184746
:1046900031B50024009900290CD00968002909D0FF
:1046A0000D5F684603F063FB280003F080FB0028E1
:1046B00004D007E038BC08BC14201847280002F0DA
:1046C000C1F90400200038BC08BC1847F8B5060042
:1046D0000C0000250095042E03D3F8BC08BC002074
:1046E0001847300001F04DFE002806D0200001F0F0
:1046F000F4FD0090F8BC08BC1847300002F01AF92D
:10470000002830D02100300003F009FB01000090A8
:1047100000292CD0E4207043F84A8718F878D42276
:104720005043C4190834207A042829D0012853D0D2
:10473000052851D002284FD006284DD0080001F09E
:1047400083F920722421085500281DD0042820D088
:10475000200001F01AFA00281FD020770098FFF7F8
:1047600097FF009538E0F8BC08BC002018473000DF
:1047700003F01DFB00282FD1300002F063F92BE07D
:10478000684603F0F4FA27E00098FFF781FF0095F0
:1047900022E0684603F0EBFA1EE00121300003F04E
:1047A000A2FD200001F02FFA002805D02077009804
:1047B000FFF76EFF00950FE0227A0121300001F033
:1047C000ADFE200001F0A2FA002809D02077257262
:1047D0000098FFF75DFF00950098F8BC08BC1847EB
:1047E00002206072C0373D77F6E770B505000124FE
:1047F000A11E2800FFF76AFF002803D0C04AA900C5
:10480000505000E00024200070BC08BC1847F0B5F0
:1048100085B006000C000020039000220192009257
:10482000002E0AD03068002807D0815E042909D301
:1048300005B0F0BC08BC1420184705B0F0BC08BC9B
:1048400014201847002C05D0002020607068411CFF
:1048500005D005E005B0F0BC08BC142018470020C6
:1048600002903068D422C17851430D180835287A57
:10487000002844D02070286BE06031680020085E7A
:1048800003F01AFC00283DD000202076287A27006B
:104890002037022839D0062837D00298002848D07F
:1048A00016200390002060606C20405D2074002082
:1048B0006061387100982062286CE0612800403007
:1048C00004904089E0840498808920852900200094
:1048D00007224E312A3006F01DFB0498407D787483
:1048E000A86D60635C3503CDE163A06321003000F7
:1048F00002F0D8F9039805B0F0BC08BC18471520A1
:104900000390F3E701202076C0E730006A4601A952
:1049100002F06AFF0390019860606C20405D207493
:10492000A86B6061300002F0E3FF3871E86AA060B4
:10493000C0E7A86A6060B7E7042801D31420704775
:104940006F4A8000105862E7FFB50F008DB0002855
:104950000BD00568002D08D00026AE5F042E09D3C9
:1049600011B0F0BC08BC1420184711B0F0BC08BC52
:1049700014201847DC21495D002904D011B0F0BC97
:1049800008BC1B201847E978D42251434C1908343D
:10499000217A00290CD001290FD005290DD0022938
:1049A0000BD0062909D0102011B0F0BC08BC184764
:1049B000152011B0F0BC08BC184701F02DFB0028F1
:1049C000F7D1109901221000012900D100201221F5
:1049D000002800D11121039168460681027500204C
:1049E0000A90207A052810D006280ED0206B784334
:1049F00004901098022200900F9B280002A901F059
:104A000054FB11B0F0BC08BC18470497F1E710B58F
:104A1000042803D3002010BC08BC1847384C800081
:104A20002058FFF791FF010001200029F3D010BCAE
:104A300008BC00201847FFB50F008DB000280BD030
:104A40000568002D08D00026AE5F042E09D311B0F2
:104A5000F0BC08BC1420184711B0F0BC08BC1420EE
:104A60001847DC21495D002904D011B0F0BC08BC16
:104A70001B201847E978D42251434C190834217A75
:104A800000290CD001290FD005290DD002290BD007
:104A9000062909D0102011B0F0BC08BC1847152019
:104AA00011B0F0BC08BC184701F0B6FA0028F7D1E5
:104AB000109901221000012900D10020192100289D
:104AC00000D11821039168460681027500200A90E2
:104AD000207A052810D006280ED0206B7843049049
:104AE0001098002200900F9B280002A901F0DDFA27
:104AF00011B0F0BC08BC18470497F1E7BC40022A8B
:104B00009440022A10B5042803D3002010BC08BC2E
:104B10001847E84C80002058FFF78DFF0100012066
:104B20000029F3D010BC08BC0020184701207047B2
:104B3000012070470020704710B50124042803D3DA
:104B400010BC08BC00201847DA4980000858FFF75D
:104B50009FFD002800D00024200010BC08BC18478E
:104B600010B500280AD00068002807D00021415E57
:104B7000042907D310BC08BC0020184710BC08BC8F
:104B800000201847DC21095C002903D010BC08BCB8
:104B900000201847C178D42251430C180834207AD9
:104BA000002808D0200001F0DCFD092807D010BC47
:104BB00008BC0120184710BC08BC00201847002082
:104BC000207210BC08BC18470020704700207047B6
:104BD0000120704701207047002807D00421018080
:104BE000B549418080214160002070471420704702
:104BF00070B50D000024042803D370BC08BC00204D
:104C0000184703F059FA02280AD2010079440979B9
:104C100049188F440004012D02D1012400E0012431
:104C2000200070BC08BC1847012070470020704766
:104C3000F0B58BB005000F0008200A90E42068430F
:104C40009E494018C178D42251430E1808360124D9
:104C50000020009002900390049005900690079029
:104C60000890099069460D800D200190012008737D
:104C7000708900040290684601F006FE0498C004A2
:104C8000000F0499C905C90F874201D101290AD033
:104C900020000F21641C09038842D9D30A980BB065
:104CA000F0BC08BC184700200A90F7E7F0B58BB0BD
:104CB00003000C001700002B10D0186800280DD03E
:104CC0000026865FC178D42251430D180835042E82
:104CD00009D30BB0F0BC08BC142018470BB0F0BCD3
:104CE00008BC14201847287A062806D0022804D0C9
:104CF00016200BB0F0BC08BC1847180001F08CF966
:104D00000028F6D169460E80012008730026089617
:104D1000029423200190684601F0B6FD0028E8D1F6
:104D2000287A062816D07F1E7802001902902420C7
:104D30000190684601F0A8FD0028DAD10120089012
:104D4000029626200190684601F09EFD5C4A0028EC
:104D500004D007E0E019401E0290E8E704991142F0
:104D600000D00F200728C4D10498104204D00BB003
:104D7000F0BC08BC0F201847280001F00EFD0728E2
:104D8000FAD00BB0F0BC08BC184710B500280FD003
:104D9000006800280CD00021415EC278D4235A4319
:104DA00010180830042907D310BC08BC1420184779
:104DB00010BC08BC14201847017A062903D010BC87
:104DC00008BC162018473F4902F09BF810BC08BCED
:104DD0000028184710B500280AD00168002907D01C
:104DE00000228A5E042A07D310BC08BC142018478E
:104DF00010BC08BC14201847CA78D4235A43511851
:104E0000097C022905D0062903D010BC08BC162055
:104E1000184702F08CFD10BC08BC184716207047DC
:104E200070B50400002C0FD0A178022901D006290A
:104E30000AD18B25AD002448290006F02DF922481F
:104E40002A00210006F0D2F870BC08BC184710B543
:104E500000280FD0006800280CD00021415EC278E5
:104E6000D4235A4310180830042907D310BC08BCB7
:104E70001420184710BC08BC1420184701F0B2FADF
:104E800010BC08BC184710B500280AD00268002AD8
:104E900007D00023D35E042B07D310BC08BC14201A
:104EA000184710BC08BC1420184702F03FFE10BC85
:104EB00008BC18479440022A00020000BC40022AA5
:104EC0000080FFFD0001A203683E022A10B50949D7
:104ED000401806F045FC0848016010BC08BC1847A3
:104EE00010B50449401806F03BFC0348416010BC73
:104EF00008BC1847E70300005CD0002A10B504493D
:104F00000968484306F024FC10BC08BC18470000A0
:104F10005CD0002AFC4980000858FF30813040688E
:104F2000C007C00F002800D00120F8490006000E7D
:104F30004870704700207047F44800787047F34A83
:104F4000012111708200F0488058FF304130026822
:104F50000A4302607047ED4A002111708100101D64
:104F60004058FF30413001684908490001607047EE
:104F7000E74902200871704710B500F022FA10BC12
:104F800008BC184710B500F01BFA10BC08BC184745
:104F900010B50400FF23002284212000FEF7FBFD52
:104FA000FF23002287212000FEF7F5FD642000F09A
:104FB00001FA10BC08BC184710B50400FF230022FA
:104FC00091212000FEF7E7FDFF230022932120001E
:104FD000FEF7E1FD642000F0EDF910BC08BC1847B5
:104FE00010B5002909D0012904D118230822042171
:104FF000FEF7D1FD10BC08BC18471823002204217D
:10500000FEF7C9FD10BC08BC184770478100BE48B8
:105010004058FF308130416A2022914341627047FD
:105020008100B9484058FF308130416A20229143C5
:105030004162704710B504002000FFF7A9FF20006F
:10504000FFF7BAFF10231A0084212000FEF7A3FD0A
:1050500020231A0084212000FEF79DFD0A2000F085
:105060009AF910BC08BC184710B5040010230022A0
:1050700084212000FEF78FFD2023002284212000C0
:10508000FEF789FD0A2000F086F910BC08BC18471D
:1050900010B504002000FFF77BFF2000FFF78CFF16
:1050A00002231A0084212000FEF775FD01231A0057
:1050B00084212000FEF76FFD20231A0084212000A8
:1050C000FEF769FD322000F066F910BC08BC1847F5
:1050D00010B504002000FFF75BFF2000FFF76CFF16
:1050E00008231A0084212000FEF755FD02231A0030
:1050F00084212000FEF74FFD01231A0084212000A7
:10510000FEF749FD322000F046F910BC08BC1847F4
:1051100010B58721FEF719FD8007C00F10BC08BC31
:10512000184710B58721FEF710FDC007C00F10BC4F
:1051300008BC184710B58721FEF707FDC006400FD1
:1051400010BC08BC1847F1B582B0002000900124C3
:105150000825E1E0132C72D2200078440079001871
:105160008744D80915D8D83F5C7A8BA5A8ABAEB1D7
:10517000B4B7BABDDA0002980121FFF731FF0298F7
:10518000FFF74EFF0298FFF755FF0224C4E0002608
:105190000298FFF7BDFF07063F0E0298FFF7CAFF10
:1051A0000190012F02D0019800280BD00A2000F0B6
:1051B000F2F8012F04D00198002803D0082409E058
:1051C000052407E0962000F0E6F8761C3606360E39
:1051D000062EDDD1022C00D106240298FFF744FFF1
:1051E0009AE00298FFF754FF0298FFF79AFF04062F
:1051F000240E0298FFF79EFF2100014302D0012CEC
:1052000002D003E0092487E0002803D0002803D05F
:10521000082481E007247FE010247DE00298FFF756
:1052200037FF0298FFF77DFF0406240E0298FFF770
:1052300081FF2100014303D0012C03D004E069E089
:10524000092469E0002803D0002803D0082463E083
:10525000072461E010245FE00298FFF739FF02980D
:10526000FFF75FFF0006000E002802D0012853D18F
:1052700001E00A2450E00B244EE00298FFF751FFB2
:105280000406240E0298FFF755FF022805D00328D4
:1052900009D0042809D010243EE0012C01D00D24AF
:1052A0003AE00C2438E00E2436E00F2434E00025E8
:1052B000112431E0012511242EE0022511242BE0D8
:1052C0000325112428E00425112425E005251124B7
:1052D00022E0062511241FE0072511241CE0029876
:1052E000FFF756FE0298FFF767FE02980021FFF7CE
:1052F00077FE0298FFF78AFE002D02D10298FEF792
:105300001AFC122408E0000068D0002A64D0002AA9
:10531000A440022A07251124122C06D000980099D7
:10532000401C6429009000D214E7009864280DD333
:1053300007250298FFF72CFE0298FFF73DFE029822
:105340000021FFF74DFE0298FFF760FE280003B032
:10535000F0BC08BC1847000001207047002804D0AA
:10536000012802D117481849C860704770470028C3
:1053700001D0012804D114480169012211430161BF
:105380007047002801D0012804D10F48016949085D
:1053900049000161704770B505000024002D06D951
:1053A0000A4E3000FFF7AAFD641CAC42F9D370BC72
:1053B00008BC184710B5FFF7A1FD10BC08BC184782
:1053C00070477047000A000000299000E8030000C1
:1053D00010B50006000E03F001FB10BC08BC184716
:1053E00010B50022F121B520FFF7F2FF00280022BE
:1053F000E821B520FFF7ECFF00280022E921B520C5
:10540000FFF7E6FF00280022BF21B520FFF7E0FFED
:1054100000280022C521B520FFF7DAFF0028FF2170
:1054200000220831B520FFF7D3FF0028FF2100221A
:105430000931B520FFF7CCFF0028FF2100221731EA
:10544000B520FFF7C5FF002800220221B520FFF795
:10545000BFFF10BC08BC00281847000030B403216F
:105460000905C2680B004C00002A00D023001D680B
:10547000FF4B1D4001239B031D430B00002A00D05E
:1054800023001D60C0680A00002800D022001268B6
:10549000F84B1A40002800D021000A6030BC704749
:1054A00070477047F0B403231B05C4681D005E00FD
:1054B000002C00D035002D68EF4F89073D40090FC3
:1054C0000D431900002C00D031000D60C068190098
:1054D000002800D031000968E84C92072140920E64
:1054E0001143002800D033001960F0BC704710B49D
:1054F000032212055300012913D0032911D00429D6
:105500000DD1C0681100002800D019000968D84CDE
:10551000214080242143002800D01A00116010BCD3
:105520007047C0681100002800D019000968D44CE9
:105530002140002800D01A00116010BC704730B420
:105540000839072911D803221205C0681300540036
:10555000002800D023001B68CA4D49072B40490D85
:105560000B43002800D02200136030BC7047F0B419
:10557000FF25C54CC54B4035062946D20E007E445A
:105580003679B619B744A10222426282002A0ED0AF
:10559000C1682600002900D01E00366802272E4070
:1055A0003E432700002900D01F003E608DE0C16807
:1055B0002600002900D01E003668FF273E373E40F7
:1055C0002700002900D01F003E607EE0002A0ED098
:1055D000C1682600002900D01E00366804272E402E
:1055E0003E432700002900D01F003E606DE0C168E7
:1055F0002600002900D01E003668FF273C373E40B9
:105600002700002900D01F003E605EE0002A0ED077
:10561000C1682600002900D01E00366808272E40E9
:105620003E432700002900D01F003E604DE0C168C6
:105630002600002900D01E003668FF2738373E407C
:105640002700002900D01F003E603EE0002A0ED057
:10565000C1682600002900D01E00366810272E40A1
:105660003E432700002900D01F003E602DE0C168A6
:105670002600002900D01E003668FF2730373E4044
:105680002700002900D01F003E601EE0002A0ED037
:10569000C1682600002900D01E00366820272E4051
:1056A0003E432700002900D01F003E600DE0C16886
:1056B0002600002900D01E003668FF2720373E4014
:1056C0002700002900D01F003E60002A0CD0C068CF
:1056D0002100002800D01900096801222940114347
:1056E000002800D01C002160F0BC704730B4684C2A
:1056F000684B062A16D215007D442D796D19AF44EA
:10570000021324354657C0682200002800D01A0032
:105710001268614D49072A40490F0A43002800D00A
:105720001C00226030BC7047C0682200002800D0F6
:105730001A001268594D49072A40890E0A43002869
:1057400000D01C00226030BC7047C06822000028D6
:1057500000D01A001268524D49072A40C90D0A4369
:10576000002800D01C00226030BC7047C0682200B6
:10577000002800D01A0012684A4D49072A40090D36
:105780000A43002800D01C00226030BC7047C0686B
:105790002200002800D01A001268434D49072A4011
:1057A000490C0A43002800D01C00226030BC70471E
:1057B000C0682200002800D01A001268490752046D
:1057C000520C890B0A43002800D01C00226030BC18
:1057D000704710B409290FD8C4683448344B890085
:1057E0000818C918002C09D00B001B68D206D20E6D
:1057F000002C00D00800026010BC70470300F4E7E2
:1058000010B4042A19D2002917DD4C1EA400A418D4
:10581000132C12D8491E8900C46889182548264AC5
:10582000890008188918002C09D00A0012685A0447
:10583000520C002C00D00800026010BC704702001F
:10584000F4E710B4002B3CD0042A3AD2002938DD0A
:105850004C1EA400A418132C33D8C468491E880019
:1058600080188000002C2ED013494018006825E0D5
:10587000BFF70F00BFD70F00B3F70F008FF70F0070
:105880003FF70F00BFF00F00A0003000A000600045
:105890000800300008006000F8FF0300C7FF0300A5
:1058A0003FFE0300FFF10300FF8F030020003000E4
:1058B00020006000A4003000A40060004004400C00
:1058C000186010BC704744494018CFE710B4434AF1
:1058D000C068434C1300002800D023001B680B4312
:1058E0001100002800D021000968002800D0220003
:1058F000136010BC704710B4384AC068384C1300AD
:10590000002800D023001B688B431100002800D022
:1059100021000968002800D02200136010BC7047E5
:10592000C068304A002800D02F4A10688006800ED8
:10593000C20706D0002902D08006C00E08600120F0
:10594000704700207047F0B403252D05274EC3682B
:105950006C0000290ED02900002B00D0210009681E
:1059600001273140BF0339432F00002B00D027000F
:1059700039600BE02900002B00D0210009681C4F82
:1059800039402F00002B00D027003960002A0DD0AD
:10599000C0682900002800D021000968154A11407C
:1059A000002800D025002960F0BC7047C06829009D
:1059B000002800D02100096801223140D2031143A0
:1059C000002800D025002960F0BC7047002901D0D4
:1059D0000948086070470000A40030000C00300047
:1059E0000C0060001000300010006000BFF70F00D6
:1059F000BFB70F00BF770F0004C8002A10B504001E
:105A0000FF4802F0A4FB0121200002F05CFB10BC67
:105A100008BC184710B5FFF7F1FF02F078F910BC89
:105A200008BC0120184710B50024045F200002F0D4
:105A30001DFD01000D22200002F022FD0028F5D0FE
:105A400010BC08BC0020184770B500680024045F33
:105A5000042C03D3002070BC08BC1847022120008E
:105A600002F0E8FB0121200002F067FC0021200089
:105A700002F04EFC7D25ED00280002F0D9F901214D
:105A8000200002F045FC280002F0D2F9022120009B
:105A900002F0F3FB00221100200000F03FFD200087
:105AA00004F092FD0028D6D1200001F078FB70BCF4
:105AB00008BC1847F8B504000B00160001250027A4
:105AC000E75FC42000590028227AC821022A08D0A2
:105AD000062A06D0002B00D0CA49002805D0414331
