:020000042A00D0
:10000000D1DC4B843410D7730D000000FFFFFFFFDD
:10001000FFFFFFFF500000005000002A94C10000C5
:1000200094C10000E4C1002A00000000E4C1002ADD
:10003000000000000100000001000000FFFFFFFFC2
:10004000FFFFFFFFFFFFFFFFFFFFFFFFFFFFFFFFC0
:10005000F22800EA78A2002A78A2002A78A2002AD0
:1000600078A2002A78A2002A78A2002A78A2002A80
:1000700078A2002A7847C046640051E3DA26000AD5
:100080000000B0E31EFF2FE130B48E4A08290FD3E1
:100090008D4C0578130A12026B405B00E35A534003
:1000A0001A04120C08390904090C401C0829F0D262
:1000B000002917D000780302491E08048349000C68
:1000C00014005C40240403D55204120C4A4001E0A1
:1000D0005204120C5B041B0C0400401E0004000CB4
:1000E000002CEDD1D04330BC0004000C704710B49C
:1000F000744A08290DD3764B047854402406E40D45
:100100001C5B120A624008390904090C401C0829CA
:10011000F2D2002914D000780302491E08046D4968
:10012000000C14005C40E40702D052084A4000E092
:1001300052085B080400401E0004000C002CF0D1A3
:10014000D04310BC0004000C704730B4624A082948
:100150000ED3624B0578940D6C402406A40D1C59F7
:100160001202624008390904090C401C0829F1D226
:10017000002914D000788305491E08045849000C52
:1001800014005C40A40002D552004A4000E0520036
:100190005B000400401E0004000C002CF0D1D04392
:1001A00030BC80008008704730B44B4B8343082A32
:1001B0000ED34A480D789C0D6C402406A40D0459BA
:1001C0001B026340083A1204120C491C082AF1D29F
:1001D000002A14D008788105521E1004404A000CF1
:1001E0001C004C40A40002D55B00534000E05B00C3
:1001F00049000400401E0004000C002CF0D1D8433C
:1002000030BC80008008704730B4C0430004000C4C
:10021000002A0FD02C4C0D78030A00026B405B00C3
:10022000E35A43401804000C521E1204120C491CDD
:10023000002AF0D1C04330BC0004000C704710B459
:10024000C0430004000C002A0BD0214B0C78444022
:100250002406E40D1C5B000A6040521E491C002A63
:10026000F4D1C04310BC0004000C7047030030B44C
:10027000100008290DD31B4A1D78040E6C40A40001
:1002800014590002604008390904090C5B1C082954
:10029000F2D2002913D01A781206491E124B090413
:1002A000090C0400544002D54000584000E04000D2
:1002B00052000C00491E0904090C002CF1D130BC7D
:1002C00070470000FFFF0000F0AF002A211000007F
:1002D000F0B1002A08840000FFFFFF3FF0AB002AC6
:1002E000C7B93060F0B3002AB71DC1040021016016
:1002F0004160704710B5254C20680AF0FDF80128D0
:100300000DD160680AF0F8F8002806D100F0C6F8B0
:1003100060680AF0F1F80028F8D01D48046110BCAC
:1003200008BC1847FFF7E6FF00F0F7F81948184C2B
:1003300020606060A060E0601748FFF7D7FF1748B3
:1003400061680AF0DAF81648A1680AF0D6F815488C
:10035000E1680AF0D2F801F02FF9134C200000F008
:10036000A4F8FBE7002070470020704710B5642117
:10037000484300F09AF810BC08BC184770470020AA
:100380000A49401C8842FCDB7047000084BE002AFA
:1003900050BE002AED02002AF401012AFC01012AC4
:1003A0000402012A0C02012A10270000E8030000C1
:1003B00010B53148006802F0AFF910BC08BC18470E
:1003C00010B501F077FD10BC08BC184710B501F05E
:1003D000BCFD002807D0284C206802F09DF901F0F0
:1003E000B4FD0028F8D110BC08BC184701207047A4
:1003F00010B504006068022806D1E169606900F068
:100400008BF9200001F0E1FD10BC08BC184738B59D
:10041000002001F0A4FC0120002300901749184897
:100420001A0001F0ACFC144D286000281FD0C068F1
:10043000002102F037FE1349441828680021C068E3
:1004400002F030FE201A002811DD286802F064F95D
:100450002868C169002903D038BC08BC01201847AE
:10046000C068002102F01EFE201A0028EDDC38BC16
:1004700008BC00201847000064BE002A68BE002A9D
:10048000F103002A20A10700FEE77047114901206F
:100490008863114908631149086070470D490120BC
:1004A000C8630D4900200863704770B5094C0025EA
:1004B000A5600121E1600AF047F9094A094B0AF0F9
:1004C0004BF90AF0DBF8A1688142FCD3E56070BC0F
:1004D00008BC184700A000020000401A40A000021B
:1004E0008DEDB5A0F7C6A03F70B50400200004E074
:1004F000521E0B78491C0370401C002A05D0CB0704
:10050000DB0FC507ED0F2B43F2D1002A01D009F014
:10051000E5FB200070BC08BC184710B4FF4B00225C
:100520001A609A800120411E8C0109190901CC181A
:100530008101411809015C50C9188A80401C1E289D
:10054000F1DBF749F74801624262C26202708262DF
:100550000121417010BC704710B4F24AF24CD06ACD
:1005600000238188C91EA14202D3838010BC70473A
:10057000916A002905D00860D06A9062D36210BCED
:10058000704790625062D36210BC7047F8B5E74F75
:100590003868C06809F0B0FF386801697E2009F04A
:1005A000ACFF01250024DF48016B002918D9E04386
:1005B000C00603D13868C06809F09EFFDC48065DBC
:1005C0007E2E26D07D2E24D0396830060969000E93
:1005D00009F093FF6D1C641CD248006B8442E6D383
:1005E0003868C06809F088FF386801697E2009F022
:1005F00084FF6D1CA80609D1386801697E2009F0C6
:100600007CFF386801697E2009F077FFF8BC08BCE0
:100610001847386801697D2009F06FFF202039688C
:10062000464030060969000E09F067FFAD1CD2E7AD
:1006300010B5BC4C206BC004010CBD48FFF757FD42
:10064000BB4A216B5054000A52185070891C216318
:1006500010BC08BC184700210278401C002A04D0B6
:10066000491C0278401C002AFAD10800704770B576
:1006700003001800FFF7EFFF0400AD4D0E202870B7
:1006800022001900681CFFF72FFFA649641C601C9C
:100690000A2208632A55FFF7CBFFFFF777FF70BCEC
:1006A00008BC184770B59F4C2169491C2161E16A5B
:1006B0000025002907D1216A00291CD0E1620A68BF
:1006C00022628D800D607D2821D07E2819D0E16ABC
:1006D000984B8A889A4207D22378002B02D0202395
:1006E00058402570891D5054E06A8188491C8180DA
:1006F00070BC08BC184790A0FFF7B9FF70BC08BCDD
:100700001847FFF729FF257070BC08BC1847012067
:10071000207070BC08BC1847F3B5050081B0814952
:1007200002980A6910180861C86A002808D1086A86
:10073000002853D0C86202680A62002282800260E8
:100740007848C66AB488B61D0298042831DD286846
:100750000090010E7D2948D00202130E7D2B44D05B
:100760000204120E7D2A40D00006000E7D283CD0E7
:100770007E293AD07E2B38D07E2A36D07E2834D0BF
:10078000301904226946FFF7AFFE664A1078002848
:1007900005D0305D20214840305500201070241DC8
:1007A0002404240C2D1D0298001F02900298042896
:1007B000CDDC029F7F1E14D328787D284AD07E2866
:1007C0003DD05C498C424AD256490A78002A45D02D
:1007D0002022504030550020087040E056A0FFF71E
:1007E00046FF03B0F0BC08BC1847032728787D28D3
:1007F00019D07E280CD04F498C4219D2494A117821
:10080000002914D0202148403055002010700FE0FE
:10081000002C04D04348C06A8480FFF79DFE414904
:100820000020087007E03F490120087003E03055C0
:10083000641C2404240C6D1C7F1ED7D2B3E7002C4B
:1008400004D03848C06A8480FFF786FE354900200E
:10085000087007E033490120087003E03055641C3C
:100860002404240C6D1C7F1EA6D203B0F0BC08BC6F
:100870001847F8B51C252B4F7869FFF7ECFE0400EC
:10088000354879692200FFF72FFE2200324E0832E8
:10089000944219DA31493B69402C0BDBB869FFF708
:1008A000DAFE05002C48B9692A00FFF71DFE00207A
:1008B000705509E01800E8400007000F085C30554B
:1008C0002D1F641C9442E7DB002030552248FFF7BF
:1008D000CEFEF8BC08BC184770B504000D00280017
:1008E000FFF7B9FE06002800FFF7C1FE10480D21F2
:1008F00001704470210A8170210CC170210E0171B8
:1009000032002900401DFFF7EFFD0648761D066303
:10091000FFF78EFEFFF73AFE70BC21E01402012AB9
:10092000E477012A98BE002A0504000060BE002A70
:10093000F87F012A070400004552523A2057696E99
:10094000646F77206F76657272756E20646574656A
:10095000637465642E2E2E00F88F012AF0B7002AEA
:1009600008BC184710B50520F4A1FFF7B5FF10BC6F
:1009700008BC00201847F8B50400F4492022E01D07
:1009800009F070F9002807D00520F1A1FFF7A4FFB6
:10099000F8BC08BC0020184726002036307A022810
:1009A00007D20520F0A1FFF797FFF8BC08BC002094
:1009B0001847A088242807D20320F2A1FFF78CFF54
:1009C000F8BC08BC00201847F84800254570F84FCF
:1009D000022138003970F7492022401CFFF784FDBE
:1009E000F54C052060700220A070E5700420207195
:1009F0006571A571E57125726572A57202F0D8FD69
:100A00000300002B1FD01800FFF725FE0206120E70
:100A1000E272EA481900FFF767FDE17A2C311E22E5
:100A2000481C7A54441C3D54381902F0C3FD011986
:100A3000727A19200240481C7A54E149D2060AD53C
:100A400001220A7008E00820DEA1FFF745FFF8BC8C
:100A500008BC002018470D70D44908630121C90261
:100A6000884204D90720DEA1FFF736FFFEE7FFF733
:100A7000DFFDFFF78BFD0024E34DE00040194068E7
:100A8000002801D009F038FD641C042CF5DBF8BC0B
:100A900008BC0020184710B50520DCA1FFF71CFF9B
:100AA00010BC08BC00201847F0B583B005210291A6
:100AB000841D8088262808D00320DAA1FFF70CFFC8
:100AC00003B0F0BC08BC0020184765782000203037
:100AD000C178867809020E430779407900020743FE
:100AE000FF211931601CFFF702FBD4498E4208D068
:100AF0000298D3A1FFF7F0FE03B0F0BC08BC0020C1
:100B00001847874208D00298D9A1FFF7E5FE03B045
:100B1000F0BC08BC00201847012D04D0022D07D0DE
:100B2000032D15D065E00520B8A1FFF7D5FE60E0E4
:100B300002F07BFF002807D0D7A1FFF7CDFE03B05E
:100B4000F0BC08BC00201847DCA0FFF790FD50E087
:100B5000E078A6786179000206432079000409064E
:100B600008430643201DC178A47909020C4301798A
:100B700040790904000601430C43E1483300802119
:100B8000D8A2009408F0DAFFDD48FFF770FD0125D8
:100B9000AD02DB482B008021DAA208F0CFFFD84855
:100BA000FFF765FDDF48019029006002A84200D2EE
:100BB0000100019809F032F9002C17D002273D00FE
:100BC000022C00D22500019A2900300002F061FFBA
:100BD000002807D0D4A1FFF77FFE03B0F0BC08BC0B
:100BE000002018477619641B002CE8D1D3A0FFF72A
:100BF0003EFD6F48242101706C4A01211163D549E3
:100C0000401C02F083FF002807D0D3A1FFF764FE49
:100C100003B0F0BC08BC00201847FFF709FDFFF740
:100C2000B5FC03B0F0BC08BC0020184710B55F4805
:100C3000C1780279114307D00F20CDA1FFF74CFEF8
:100C400010BC08BC00201847594A0C211170012122
:100C50000163FFF7EDFCFFF799FCCC480068806862
:100C600009F04AFCFFF712FCFFF70EFC10BC08BCB1
:100C70000020184710B50520C5A1FFF72DFE10BCB8
:100C800008BC0020184770B50300981D9988491FBB
:100C90000A04120C81784478037909020C43C17864
:100CA00009041B0619430C43401D21000143114355
:100CB000C9070BD015009B4B01001800FFF714FC6F
:100CC00098482A00210002F0CAFD02E0210002F04B
:100CD000C6FD002806D0B5A1FFF7FEFD70BC08BC1C
:100CE000002018473248082101704470210A8170A1
:100CF000210CC170210E01712C4905200863FFF7FA
:100D000097FCFFF743FC70BC08BC0020184710B5E7
:100D1000264CE078217908430DD001212448C902EE
:100D200002F017FE002807D0A5A1FFF7D5FD10BCE3
:100D300008BC002018474BE152E10000496E766183
:100D40006C696420436F6D6D616E640001B8002AA8
:100D5000496E76616C6964206D61676963206E75A8
:100D60006D62657200000000496E76616C696420F6
:100D700070726F746F636F6C2076657273696F6EDB
:100D800000000000506172616D65746572205265EB
:100D90007175657374205061636B6574204C656E6A
:100DA000677468204572726F7200000098BE002A56
:100DB000F87F012A22B8002A1880012A2480012AFB
:100DC000F9C0002A556E7265636F676E697A656453
:100DD00020666C6173682064657669636500000055
:100DE000496E7465726E616C206572726F72202D2F
:100DF000207265706C795F627566666572206F76C9
:100E0000657272756E000000F401012A4665617416
:100E1000757265206E6F7420636F6D70696C6564A8
:100E200020696E00496E76616C6964207061636B45
:100E30006574206C656E677468000000ADDE0000AC
:100E40004750502F496E666F20636F6D6D616E6401
:100E5000206661696C65642E20496E76616C6964F8
:100E6000204D61676963204E756D626572000000F8
:100E70004750502F496E666F20636F6D6D616E64D1
:100E8000206661696C65642E20496E76616C6964C8
:100E9000204352430000000053657420616374696D
:100EA000766520626F6F7420706172746974696F07
:100EB0006E206661696C65640000000053657420F3
:100EC00061637469766520626F6F742070617274FB
:100ED0006974696F6E207375636365737366756C8F
:100EE0006C7900007A65726F6F757420737461722B
:100EF000742025642C206C656E20256400000000A1
:100F00003890012A7A65726F696E67206F75742058
:100F1000256420627974657320617420612074698E
:100F20006D650000F47B012A5A65726F696E672057
:100F30006F7574206661696C656400005A65726F34
:100F40006564206F7574207375636365737366756C
:100F50006C6C7900C8BE002A506172746974696F44
:100F60006E20696E666F206661696C6564000000C2
:100F700043616E6E6F74207265736574206265667E
:100F80006F726520636C6F736500000060BE002A9D
:100F900053696D706C65207772697465206E6F742B
:100FA00020616C6C6F776564000000005772697493
:100FB0006520756E7375636365737366756C000089
:100FC0004572617365206661696C656400000000AC
:100FD0000F20F2A1FFF780FC10BC08BC00201847CE
:100FE000F8491E20087001202063FFF721FBFFF75E
:100FF000CDFA10BC08BC0020184710B5811D8088B0
:10100000401E0404240CEF480A2202702200491CEE
:10101000401CFFF769FAEC48641C0463FFF708FB07
:10102000FFF7B4FA10BC08BC0020184710B5E5491A
:1010300012200870E449012008631520E3A1FFF79E
:101040004BFC10BC08BC0020184770B5C479DE4DBD
:101050002879002810D0A04207D00F20E1A1FFF787
:101060003BFC70BC08BC00201847E7A0FFF7FFFA64
:1010700070BC08BC00201847200002F0CDFA002800
:1010800007D00720EBA1FFF727FC70BC08BC0020AD
:1010900018472C71CB491420087001202863FFF7F2
:1010A000C7FAFFF773FA70BC08BC0020184710B5E8
:1010B000C54CE078217908430AD002F0CCFB002827
:1010C0000ED0DFA1FFF708FC10BC08BC00201847B9
:1010D0000F20DFA1FFF700FC10BC08BC0020184760
:1010E0000020E0702071B7491620087001202063AD
:1010F000FFF79EFAFFF74AFA10BC08BC0020184719
:1011000010B5C07902F084FA002806D0DAA1FFF702
:10111000E3FB10BC08BC00201847AB4901208860E5
:10112000A84B18221A700863FFF782FAFFF72EFA0D
:1011300010BC08BC0020184770B503000833818834
:10114000891E0A04120CC1799F4CA068012807D09F
:101150000F20D0A1FFF7C0FB70BC08BC00201847CF
:1011600001204002824207D90320D7A1FFF7B4FB38
:1011700070BC08BC00201847180002F04BFA914AD6
:1011800000211A230225002817D0607904280BD0EB
:10119000E160137050702563FFF74AFAFFF7F6F924
:1011A00070BC08BC00201847E1600720CEA1FFF703
:1011B00093FB70BC08BC002018470120E06013704E
:1011C00051702563FFF734FAFFF7E0F970BC08BCF3
:1011D0000020184770B503000833C5798088801E49
:1011E0000204120C784CA068012807D00F20C8A177
:1011F000FFF772FB70BC08BC00201847E0680128AC
:1012000007D00F20CDA1FFF767FB70BC08BC002002
:1012100018472900180002F064FA6A4902221C23C8
:1012200000281CD0A07904280DD0012813D0022852
:1012300011D003280FD00720CCA1FFF74DFB70BCC5
:1012400008BC002018470720C8A1FFF745FB70BC69
:1012500008BC002018470B704870226304E0E5705A
:101260000B70002048702263FFF7E2F9FFF78EF958
:1012700070BC08BC00201847F0B587B00026C44CED
:101280002068C06809F038F94F48406A002877D0D4
:101290004D49012088704C6A20684862002800D1BE
:1012A0008862002020604848C069002826D00020BD
:1012B00006900025A088002814DDB5480068C068A5
:1012C00009F01AF9A088471B802F00DD80276119DB
:1012D0000698891D3A00FEF7B2FF0690ED19A08826
:1012E000A842EADCAB490698884203D0AAA0FFF7DF
:1012F000BEF93EE0A088801EA08002E0A088801E8B
:10130000A080A779232F26DDA01D0290A08803903E
:10131000A648049001A80590002500200190A4484B
:10132000E9004158002905D002A809F0E6F8012893
:1013300000D10126019A002A0AD09C492148FFF7D2
:10134000D3F8214801990163FFF772F9FFF71EF9FD
:101350006D1C042DE1DB002E0BD1781E222805D850
:1013600019494978002912D0012F10D02000FFF729
:10137000F9FA1548016A21600462406A002887D1A1
:1013800011490020887007B0F0BC08BC18478100E4
:1013900088484158200009F0B0F8EAE743616E6ED2
:1013A0006F74206572617365207768656E206E6F5B
:1013B000742070726576696F75736C79206F7065D3
:1013C0006E656400F87F012A98BE002A506F776529
:1013D00072206F6666206E6F7420737570706F7206
:1013E00074656400416C7265616479206F70656E2C
:1013F000656420696E20646966666572656E742036
:101400006D6F646500000000416C72656164792055
:101410006F70656E65642C2069676E6F72696E67A8
:10142000206F70656E20696E2073616D65206D6F31
:10143000646500004F70656E206661696C656400CC
:10144000436C6F7365206661696C65640000000021
:1014500043616E6E6F7420636C6F7365207768658F
:101460006E206E6F742070726576696F75736C791B
:10147000206F70656E6564005365742073656375D5
:1014800072697479206D6F6465206661696C65644A
:101490002E0000004E6F20736563757269747920A9
:1014A0006D6F646520726563656976656420626549
:1014B000666F726520706172746974696F6E2074F2
:1014C00061626C6500000000506172746974696F3C
:1014D0006E207461626C65206C656E67746820654F
:1014E0007863656564656400556E6B6E6F776E201A
:1014F0006572726F7220616363657074696E6720D4
:10150000706172746974696F6E207461626C6500D9
:101510004E6F207365637572697479206D6F6465B1
:10152000207265636569766564206265666F7265C1
:10153000206F70656E206D756C7469004E6F207041
:101540006172746974696F6E207461626C65207277
:1015500065636569766564206265666F7265206F94
:1015600070656E206D756C74690000004F70656E5B
:10157000206D756C7469206661696C65642C2075DA
:101580006E6B6E6F776E206572726F720000000076
:1015900060BE002A470F00004552523A2043524392
:1015A00020696E76616C696400000000F887012A8A
:1015B000F401012ACCBE002A054CFEF76FFF20681B
:1015C000C06808F099FFFEF769FFFFF755FEF4E7E2
:1015D00060BE002A10B5002801D10F2903D310BC2A
:1015E00008BC002018474C4801604C48425C4C48FD
:1015F000415C4C48006802F050FB10BC08BC012064
:10160000184770B500280DD1464C002520682900E8
:1016100002F0C8FA206802F0F1FA3F480168280099
:10162000FFF7D8FF70BC08BC1847012070470120A5
:10163000704707B582B0002803D0002005B008BC71
:10164000184739480168374803290BD0006801233F
:1016500004AA03A902F058FC0128EFD005B008BC89
:10166000002018476A46918901910068012304AA65
:1016700001A902F011FCEFE707B582B0002803D002
:10168000002005B008BC18472748016825480329F1
:101690000AD00068012303A902F052FC0128F0D00F
:1016A00005B008BC002018476B4699890191006875
:1016B000012301A902F00CFCF0E770B5140000282A
:1016C00001D1012903D970BC08BC00201847164875
:1016D00000290ED004210160124D0168286802F033
:1016E0000FFB2868210002F01BFB70BC08BC012026
:1016F000184703210160EFE710B5002803D010BCA4
:1017000008BC002018470748006802F0FDFC10BC28
:1017100008BC012018470000B890012A63B8002ACD
:1017200054B8002A48B8002A5CBF002A70B5642467
:10173000FF4DA869C00303D570BC08BC0120184741
:10174000012003F037F9641EF3D270BC08BC0020FE
:101750001847F7480021016001610168F54A91438B
:10176000012292038918016001683F22120291430D
:101770000122D20289180160EF4941608168C90CD9
:10178000C904891C8160C168C90CC9040931C160E0
:10179000EA494161EA4901610168EA4A114301608D
:1017A000E948026AFF2101310A430262E748026800
:1017B0000A430260BAE770B5E548816A0024C907A8
:1017C0000125002905D0016A0462816AA94381626A
:1017D00004E0416A4462816A294381624B2000022D
:1017E00003F0D0F8DB48816AC90706D0016A0462B9
:1017F000816A49084900816204E0416A4462816A61
:1018000029438162D448816AC90708D0016AC9099D
:10181000C9010162816A49084900816206E0416AA2
:10182000C909C9014162816A29438162CB48C16803
:1018300089088900491CC1608168C90706D0016810
:101840000460816849084900816004E0416844609F
:10185000816829438160C248816AC9070AD0016A48
:10186000C909C9010162816A49084900816270BCE5
:1018700008BC1847416AC909C9014162816A294304
:10188000816270BC08BC184770B5B148816A2B25CD
:10189000C9070124002905D0016A0562816AA143B4
:1018A000816204E0416A4562816A214381627D2050
:1018B000400203F067F8A748816AC90706D0016AA9
:1018C0000562816A49084900816204E0416A456213
:1018D000816A21438162A048816AC90709D0016AEF
:1018E000C909C90113310162816A4908490081624D
:1018F00007E0416AC909C90113314162816A214384
:10190000816296488168CA071321002A06D00268BE
:101910000160816849084900816004E042684160D3
:101920008168214381608E48816AC9070BD0016AB2
:10193000C909C9012B310162816A490849008162E4
:1019400070BC08BC1847416AC909C9012B31416202
:10195000816A2143816270BC08BC1847F8B54B20EE
:10196000000203F00FF87F49402088617E4803F0B1
:1019700021F87E48016A012529430162016A022695
:10198000B14301627A487B4F38617B4802F0FAFF2D
:101990007A48016810242143016001680422114340
:1019A000016063480068C00704D0FFF704FF604986
:1019B00000200860FFF7CDFE00287ED03868204365
:1019C0003860786820437860FFF75EFF6C490868EC
:1019D000204308606B480268224302608268224309
:1019E0008260C2682243C260026922430261664A81
:1019F0001268654B22431A60026A224302626348FE
:101A0000026822430260826822438260C2682243E5
:101A1000C260026922430261026A22430262426A90
:101A200022434262826A22438262C26A2243C262C3
:101A3000026B22430263426B22434263826B224366
:101A400082635348006A524A204310625148006A38
:101A5000504A20431062504800684F4A20431060AB
:101A60004E4800684D4A204310604D4800684C4A7B
:101A7000204310604B4800684A4A204310604848A1
:101A8000006A474A204310624648006A454A20439C
:101A900010623248046144618461434A50201060FE
:101AA0005060414884602A48C462404A106820431C
:101AB00010603F480462446200E0C9E02848806A40
:101AC000274B304398623B4800681D4B1843394B05
:101AD00018608C62CC62384804603848006A402143
:101AE0000843364908623648364908623648016A72
:101AF00021430162416A214341623448416B2943D9
:101B0000416333484168294341602C48006A012100
:101B100009030843294908622848006A2D490843F7
:101B2000264908622C492D4881602D49416159E0C0
:101B30004031900000C00F000E1003000000C000F4
:101B4000001000000000100080349000C0349000AD
:101B50004027900080249000C02D900040269000E7
:101B6000C02290000000200088130000802E90000A
:101B700011080000C027900078690000C02E900076
:101B80008020900000219000C02090004021900013
:101B9000C023900000249000002C90008022900030
:101BA00080269000C0269000402990008027900059
:101BB000802B900040309000002E9000C02F9000AD
:101BC00010010000802D9000002790008000002868
:101BD000C0000028000800004B80009100000004B5
:101BE00000800000204B0021D962204981612049FA
:101BF00001622049016320482049086020482149AA
:101C0000486021495120C8602048016A214301628F
:101C1000416A214341621E48016A214301621D4815
:101C20000168214301601C48016A21430162416A45
:101C300021434162816A214381621848C16A21437C
:101C4000C162106A20431062F8BC08BC012018472A
:101C5000F8BC08BC0020184780E610B5FFF7ABFDC4
:101C600010BC08BC18470000800100040100EC17FC
:101C700000042035C70300000500FF808000000439
:101C8000FF140000400200048021900040259000D5
:101C9000C02A900000299000C0219000802490006C
:101CA00070B50500CB48416801290CD0816B012932
:101CB00009D0002134224A431418E269002A05D0D1
:101CC000491C0229F6DB70BC08BC1847200000F054
:101CD000A0FA0028F7D02035BF4800F01DFD687A33
:101CE0000028F0D0200000F094FA0028F4D170BC55
:101CF00008BC184710B501290FD003290AD1B74CE9
:101D00002178012901D1FFF7CBFFE068002801D03D
:101D100008F0F2FB10BC08BC18470021C0690C2871
:101D200003D0FF38E13803D101E0402100E0AC49A5
:101D3000AC4A0B0A50680171437190690171090A3C
:101D4000417110BC08BC184700218161A349496852
:101D5000002900D008477047A049896808479E4974
:101D6000C860704710B50400A068FFF799FF9B4951
:101D70002000896808F0C1FB10BC08BC1847FFB5FB
:101D800083B00C9D14001E00002794480570924AF1
:101D9000002901D09068C1619349924841609349FC
:101DA0008161934893494860934B94484360944BB6
:101DB000894A1360C160012001F022FA864800F0D0
:101DC00083FC864803998160002C00D04460002E7B
:101DD00000D0C660804E01AAF06802A900F086FE1D
:101DE000884886607F494A6892780274864A4261D0
:101DF00000238361012220242254844A4262002D60
:101E00003CD000208249342402006243714C1419F2
:101E1000A660744A92699278227402035218626131
:101E20007C4AA261202213557B4A6262E361401C16
:101E30000006000E0228E6D3002F2FD0664800F0DF
:101E400084FB764801210172F068002201F089F8D4
:101E50000122F068110001F084F8F06800220221EC
:101E600001F07FF8F0680122022101F07AF85A4867
:101E7000012100F045F9012D0DD00FE0684CA6605E
:101E80008869807820746361A361202003556548C8
:101E90006062E361D0E7A068FFF702FF07B0F0BC23
:101EA00008BC4D48184710B54B4800F03EFC10BC2C
:101EB00008BC184770B50500524C6068012805D170
:101EC000454800F029FC60680128F9D0A069411C50
:101ED000A16161690D547E2D02D1A069012804D849
:101EE000A06901218903884202D3200000F091F902
:101EF00070BC08BC184770B505000E00414C606806
:101F0000012805D1344800F007FC60680128F9D0A9
:101F1000002D07D1002E05D060693200290007F09E
:101F2000DDFE00E06561A661200000F072F96068E6
:101F3000012805D1284800F0EFFB60680128F9D09E
:101F40003148606170BC08BC18472E4840680128C1
:101F500005D02148806B012801D000207047012066
:101F60007047F8B506000F002D4C25006868012861
:101F700005D1194800F0D0FB68680128F9D0002E7F
:101F800003D1002F01D0666100E06661A7612000E7
:101F900000F03FF9F8BC08BC002018470021C161DF
:101FA0007047174A002800D01081002900D05181C5
:101FB0007047002A08D1124A002801D013890380F3
:101FC000002901D05089088070470021C1618068D4
:101FD00066E600002CD1012AFCBF002A68BF002A57
:101FE00000020000ACBF002A9CBF002AA3BF002A49
:101FF00093BF002AD4BF002A8ABF002AECBF002A60
:1020000078BF002AC4D0012AC490012A491D002AA1
:1020100094D1012A00100000651D002A1CC0002A6E
:10202000F8D0012A591D002A406803E00068491EC3
:102030000904090C002801D00029F7D17047406835
:10204000002806D0426852798A4202D000680028EF
:10205000F8D17047C06AC0687047C06AC068C0687D
:10206000002806D0426892788A4203D0006800288F
:10207000F8D1002070478068002808D003898B427F
:1020800002D1837A934203D000680028F6D1002061
:1020900070470269002A00D010477047016204218E
:1020A000F7E7F0B5060083B0F06843689C788C428F
:1020B00020D1D97891421DD1C468002C15D00025BB
:1020C00061688878C2094B790F791B023B436F46E0
:1020D00028C7C9788B070107B0689B0FC068090F34
:1020E00000F028FD2468002CEAD103B0F0BC08BC45
:1020F0000020184703B0F0BC08BC0020C0431847BC
:10210000F8B504000E000025200020300090407A31
:10211000002807D0002E05D0B04203D0681EF8BCBE
:1021200008BC1847B0425FD0002E25D031002000F7
:10213000FFF785FF0700002F0DD0F86800224068E8
:1021400081783800FFF7ADFF002809DAF8BC08BC39
:102150000020C0431847F8BC08BC0020C043184703
:1021600000984672E762002060627868007A410059
:102170002000FFF793FF21E0009900204872E06201
:1021800000212000FFF78AFF0126E06800223100CD
:1021900000F096FEE0680022310000F03CFDE068AF
:1021A0000122310000F08CFEE0680122310000F0D5
:1021B00032FD761C3606360E032EE6D303212000B0
:1021C000FFF767FFE06800F089FF002805D00128CD
:1021D00005D0022804D1FF4D02E0402500E008258B
:1021E000280000F084FF10E0E06800F077FF00288E
:1021F00005D0012805D0022804D1F64D02E0402583
:1022000000E00825280000F072FFF8BC08BC0020A0
:10221000184710B5F049016000214160C161816833
:10222000002908D0CA68C2602031497A002908D143
:10223000017C090705D00321416010BC08BC081FC0
:10224000184700F0F4FD10BC08BC184770B5060034
:102250001D00E24C30003430002900D13430416898
:10226000012904D042618561FFF7D3FF0400201EDD
:1022700000DB280070BC08BC184702000B0030329D
:102280000121E3E7F8B507000E00B01C0025D34C90
:102290004178012904D0022905D003291BD10EE081
:1022A0003D682C7817E001783800FFF7BDFE002864
:1022B00011D04568E878A97804020C430BE0027855
:1022C00070793379010219433800FFF7D4FE0028F2
:1022D00001D045682C78002D0FD0F079B17900023B
:1022E0000843A04200DA040023002A00012138003C
:1022F000FFF7ACFFF8BC08BC18472000F8BC08BCCE
:10230000184710B54A780A2A4AD213007B441B7931
:10231000DB189F44044D454D4512264D2B3ACA7992
:102320008B7911021943022942D30021018602212F
:10233000FFF7A3FF10BC08BC1847CA7889781302BE
:102340000B43010020310A00497A002930D11906D7
:10235000090E1172C06800F088FB10BC08BC002098
:102360001847FFF78FFF10BC08BC1847CA798B7954
:10237000110219431CD0010020314A7A0A7401214C
:10238000FFF77BFF10BC08BC1847CA788B78110296
:1023900019430906090EFFF7B3FE10BC08BC184725
:1023A0004269002A04D008F0A9F810BC08BC1847FC
:1023B00010BC08BC0020C043184770B505000C00D5
:1023C00060792279010211432800FFF743FE61780A
:1023D00003294AD004DC002911D0012904D144E0AA
:1023E0000A291DD00B292CD000283ED00269002AD2
:1023F0003BD0210008F082F870BC08BC18470028C8
:1024000033D0E079A1790002084302282DD30020BF
:10241000288602212800FFF730FF70BC08BC18474F
:10242000002822D0E179A279090211431DD0017D53
:102430003020415501212800FFF71FFF70BC08BC68
:102440001847E86A002810D0E178A27823790902B9
:1024500011430A066179120E090219430906090E91
:10246000FFF71FFE70BC08BC184770BC08BC0020FA
:10247000C043184710B54B689B781C07240FDB0935
:102480000A61002A05D0C0681A00210000F0FAFA9B
:1024900004E0C0681A00210000F00CFB10BC08BC6E
:1024A0000020184770B505000C0060792279010200
:1024B00011432800FFF7D1FD0023DB43002811D092
:1024C0006178002912D0012921D003292CD00C29B0
:1024D0002FD0C268002A2CD0210008F00FF870BC61
:1024E00008BC184770BC180008BC1847E179A279ED
:1024F0000902114302291CD30069C007C00F2886B6
:1025000002212800FFF7B9FE70BC08BC1847E1782B
:10251000A278090211430CD1010000222800FFF724
:10252000A9FF70BC08BC1847E178A27809021143E2
:1025300003D070BC180008BC184701000122280015
:10254000FFF798FF70BC08BC184770B50400E0683E
:1025500002F03CFA0600A0690025B04222D0E561F5
:10256000002E16D0656264212000FFF797FDE06819
:1025700002F03CFA002804D019492000FFF78EFD34
:102580000BE000212000FFF789FDE06802F033FA3C
:1025900003E000212000FFF781FDA661002120005B
:1025A000FFF777FDE06800F099FD002824D00128AE
:1025B00024D0022824D00020E169814205D0656240
:1025C000E06101212000FFF764FDE06800F092FD6A
:1025D000050007E00002000051555242FFFFFFFFD7
:1025E000DC050000606AA8421FD0002D0AD000213F
:1025F0002000FFF753FD13E00C20DDE70120DBE7AF
:102600005D48D9E7E06A002806D04068007A4100BA
:102610002000FFF743FD03E000212000FFF73EFD0F
:10262000656205212000FFF734FD70BC08BC184727
:1026300010B504002000FFF788FF00212000FFF7FD
:102640005FFD002128200155E06800F00EFA03200C
:10265000E066A06310BC08BC184710B50400474BE7
:102660000878C006C00E04D0012807D002280ED179
:1026700009E02000FFF745FE030008E02000FFF717
:102680009CFE030003E02000FFF70CFF0300002B7B
:1026900009DD22000423303200212000FFF7D6FD9F
:1026A00010BC08BC1847002B07D00022E0681100BE
:1026B00000F0E8F910BC08BC184700212000FFF723
:1026C000DCFD10BC08BC184770B504000025A561EE
:1026D000E561200020300572E5624572002120008E
:1026E000FFF7DCFCE463802144200155A56503204D
:1026F000A063246778210D558C210D51E066204A96
:10270000E068210000F07EF8E0680122002100F07E
:1027100089FC70BC08BC184710B5002802D0C068FE
:1027200000F079F910BC08BC184710B50400A06B84
:10273000012805D12000FFF7EFFFA06B0128F9D099
:1027400000212000FFF7DCFCE06800F043FC0020E3
:10275000A061E0612034207210BC08BC184710B59D
:1027600004002000FFF7D8FF2034607A002800D052
:10277000012010BC08BC1847E0010000FFFFFFFF6C
:10278000C8C0002AFB4840787047F8B5FF21FA48D6
:10279000813107F065FBC321F848890107F060FB30
:1027A000002501220021F44BE801C718A801F34BD2
:1027B00028188001C61888010818400133188801BC
:1027C00038188360002044011A51401C4028FADB6D
:1027D000491C0229EFDB6D1C032DE3DBE849E648C9
:1027E000016001640168E74A11430160FF21813102
:1027F00002F045F9C321E148890102F040F9F8BC33
:1028000008BC1847F8B506000027DA4882600C209B
:102810007043DD4A80188160300002F0F8F8032030
:1028200002F048FB300002F0FFF8D84DB400285900
:10283000FF308130816A89088900891C81623000FB
:10284000FFF7A3FF2859CC49FF3041308161285957
:102850000023FF30413083602859FF308130826A85
:1028600008218A4382622859FF308130C362285987
:1028700080308161FFF786FF012806D12859FF309B
:10288000413001680122114301603800F8BC08BCE6
:102890001847F8B50700BD4DBC0028590121FF308D
:1028A0008130C1622959FF318131C86AC007C00F28
:1028B0000028FAD1B6480126760300902859FF3047
:1028C00041300168314301600098082102F0D1F8DD
:1028D000A949A848283106C9143006C02859FF3034
:1028E0004130006830400028E8D02859FF3041309E
:1028F0000168B14301600C204743A3483818806841
:102900009C4989684A68A34907F0F8FDF8BC08BCEF
:102910001847F0B585B081009C484058FF308130A1
:10292000C16B00910099C1630020019000260198BD
:102930009149C001401804900198810140188F49C5
:102940008001401803900198310109180120884046
:10295000009901422FD00498B1014018402102F0A3
:1029600088F8B101039871184901441802940025B0
:1029700000272021200002F07CF86068000CC719B5
:10298000002D02D1606805062D0E2068012801D0B7
:10299000246800E00024002CEBD10298C469A069EF
:1029A000C11BE161606902F064F8002D14D0802D34
:1029B0001BD003206060761C3606360E012EC2D96D
:1029C0000198401C0006000E019001980328ADD329
:1029D00005B0F0BC08BC184702206060616A00299D
:1029E000E9D0200007F089FDE5E701206060E2E71B
:1029F0000C2148436449401880685E4989688968A9
:102A00000847F5E70C2148435F4940188068594959
:102A100089680968084770B505005C48A9004158F5
:102A20000800FF3141314C680A00FF308130C66A2E
:102A30005460600602D52800FFF7E4FFE00502D5E8
:102A40002800FFF7DEFF600702D52800FFF7D0FF60
:102A5000E00702D02800FFF75CFFF00702D0280053
:102A6000FFF717FF70BC08BC184701234A061B0676
:102A7000D218464B80001858FF30413042613D4823
:102A80000170704710B403000020002903D0002A11
:102A900003D0414A02E0414A00E001229C003B4B46
:102AA00089001B59FF31C1315C58944314435C5079
:102AB00010BC704730B4040000200023002904D06B
:102AC000002A04D0364A2E4B03E0344A01E041226A
:102AD0004023A5002D4C89006459FF31C131655850
:102AE000134095431D43655030BC704710B400231C
:102AF000204CA478002C01D02A4805E0830023480C
:102B0000C0588030036880680B60106010BC70474C
:102B100000B582B00021019100916A4601A9FFF73A
:102B2000E5FF204A00990120914200D0002002B028
:102B300008BC1847F8B505000C0016001F0000205F
:102B40000090002C09D0032C03D2022E01D2022DBA
:102B500007D3F8BC08BC03201847F8BC08BC002009
:102B60001847012E20D02800FFF7D2FF00282BD0D5
:102B700000202AE0D4C0002A00F8012A80F9012AA6
:102B800000004000008000005831022AB4C1002A31
:102B900028F8012AE8C0002A000001000100010015
:102BA00000004100EFCDAB002800FFF7B1FF002887
:102BB00001D0002001E001208005B9044018012166
:102BC000C9054118F94804E04020B9004118803196
:102BD000F748069AE3011704F64A9B18B2019F5082
:102BE000079E01277F07012E11D09E583E439E501D
:102BF000F14AAB00D358A200FF32C1329C580140C9
:102C000084430C439C500098F8BC08BC18479E585D
:102C1000BE439E50ECE770B40024032903D2022A7D
:102C200001D2022801D3032413E0E24ECD01002398
:102C3000AD199601AB5100290BD0012A0CD080228E
:102C40008300DD48C3588800FF30C13019589143D4
:102C50001950200070BC7047D84AF1E7D848C068C6
:102C60007047F0B583B08C460193D64D8401D749A7
:102C700000198001401861468C010919D24F4901A1
:102C8000461802906D1C01208003834200D2180078
:102C90006901741800212160A160E1602161616116
:102CA000A161E161010480316160002D03DD691ED5
:102CB000490171180C60A260A168090B0903E16069
:102CC000E168C919E160E168C91921612169C9197F
:102CD00061616169C919A1611B1A1218002B01D029
:102CE0003F2DCFDB089800282CD06046012829D141
:102CF000FFF7B4FF0100019807F08EFA002921D1F7
:102D0000019800281ED0681C1CD06D1C029941201F
:102D10004001091868010C1800202060A060E060E4
:102D200020616061A061E06180206060002D03DDB2
:102D30006D1E680108180460A548A060E06020616D
:102D40006061A0610120206060680121C90308431F
:102D5000606003B0F0BC08BC1847FFB5050083B045
:102D60000D980C00160006998C46924AE1018918CC
:102D7000B2018F1831010A190121914002918E4B45
:102D8000AD00002C0CD15959FF318131C96AC907F6
:102D9000C90F002904D007B0F0BC08BC05201847B3
:102DA0000C9901221205914204D907B0F0BC08BC6D
:102DB0000320184780494959FF318131896B029AB4
:102DC0001140002904D007B0F0BC08BC0720184708
:102DD00000900C9B310020006246FFF742FFA001EB
:102DE0002018810179480818B10171184901461865
:102DF000BE600020F8600C99069801F040FE0024A7
:102E000060013018202101F03AFE641C412CF7D3F8
:102E10004021380001F033FE674902984959FF31DB
:102E20008131086307B0F0BC08BC00201847F0B53A
:102E300083B00400E768207C05072D0FC609606990
:102E40008446A2692020035D032D04D303B0F0BCA7
:102E500008BC032018475849B8000958A800FF309B
:102E6000C13009580120C005012E00D08020014248
:102E70000FD068460CC03200290038006346FFF7C7
:102E80006CFF00280AD00321616003B0F0BC08BCCD
:102E9000184703B0F0BC08BC072018470121616047
:102EA0000021E161A901494A691889018918B20123
:102EB000B21852018918CC6103B0F0BC08BC1847A5
:102EC000F7B50F0082B0049901240901C9198C409B
:102ED000860039488059FF308130806B2040019056
:102EE0000198002838D03349F8014118049880012E
:102EF0000818402101F0BDFD0025B80133493818FC
:102F00008001411804988201801840010F1868015F
:102F10003818202101F0ADFD6D1C412DF7D3F86963
:102F2000019900290FD0244B9959FF3181314C630D
:102F30009959FF3181314A6B2240002AFBD1896BBC
:102F400021400029F0D1002806D003214160416AC8
:102F5000002901D007F0D1FA05B0F0BC08BC002070
:102F6000184710B41201521801219140124C8300ED
:102F7000E058FF308130806B084000280ED0E058C8
:102F8000FF3081304163E058FF308130426B0A40AE
:102F9000002AFBD1806B08400028F0D1E058FF30B8
:102FA0008130C16BC16310BC002070470000FFFF7F
:102FB000FFFF000000F8012AB4C1002A00008000D1
:102FC000D4C0002AFFFFFFFF0010000080F9012A93
:102FD000E4C0002A70B5050000260024220031005C
:102FE0002800FFF76DFF641C2406240E022CF5D385
:102FF000761C3606360E032EEFD300260024220060
:1030000031002800FFF707FE641C2406240E022C62
:10301000F5D3761C3606360E032EEFD370BC08BCF3
:1030200000201847F0B40025022901D2022802D35B
:10303000F0BC03207047814C635C002B02D0F0BCD5
:10304000062070477E4B002A00D07E4B7E4E7F4A82
:10305000800000290AD017588037BE601058803091
:10306000C360012060542800F0BC704717588037B7
:103070003E60105880304360F3E7022901D20228F5
:1030800001D3032070478200704B0020002905D037
:103090009A588032D060694A505470479A588032AA
:1030A0005060F8E70022022901D2022801D3032050
:1030B0007047664B8000002902D0012906D00AE043
:1030C0001858803040680202120A04E01858803014
:1030D000C0680202120A5C48801A70475B4980008F
:1030E0000858FF30813040680001800F7047584910
:1030F000C8607047554980000858FF3081304068EB
:1031000080210840002800D001200006000E7047F2
:103110004E4980000858FF30813040680005800F1C
:103120007047810049484058FF3041300168012212
:10313000114301607047F8B500250024454E09048D
:10314000891987004148C259FF324132116309E0B1
:103150003E49C959FF3141310D6B2E000640012017
:1031600001F0A8FE01208007864205D12100FF2240
:10317000641CF5329142EBD32804F8BC08BC000E65
:103180001847FFB517001E0081B00024314DFF2EF7
:1031900009D001A803C8FFF7CEFF0006000EB04318
:1031A0003E40064300E03E000298032100048019DF
:1031B0004907401801998E0024498A59FF3241324B
:1031C00010632F0008E021488059FF304130056B23
:1031D0003D40012001F06EFEBD4205D12000FF21DF
:1031E000641CF5318842EED305B0F0BC08BC18472A
:1031F00010B501F025FD10BC08BC0006000E1847F4
:1032000013494870704770B506000C001500002186
:103210003000FFF732FF01213000FFF72EFF0B4A8D
:10322000B000115880310C6010588030856070BC3F
:1032300008BC18470649887070470000D7C0002AAC
:10324000000000C0000000C1FFFFFF00B4C1002A61
:10325000D4C0002A0000004010B500240221002044
:10326000FEF7B8F9002800D101240020FEF7C9F9C3
:10327000200010BC08BC184710B50124002802D05B
:103280000024FDF77CF8200010BC08BC184738B5B6
:1032900005000024002000900A220121FEF70DFA0B
:1032A000002800D10124022100206A46FEF7E4F93B
:1032B000002800D1641C684600780007000F04282D
:1032C00002D90420287000E02870200038BC08BC17
:1032D00018476D490870002070476B49002008703E
:1032E0007047F8B50500002400200090664E307845
:1032F000322804D02870F8BC08BC002018470221EE
:1033000000206A46FEF7B8F9002800D12124FFF713
:10331000E4FF002800D02124307828702000F8BC79
:1033200008BC184700B583B00420029032200190F9
:10333000FFF792FF02A8FFF7AAFF01210022080071
:1033400001F0D8FD01A8FFF7CCFF694608794F4985
:10335000800040186946097A40182038807F01F0C3
:10336000D1FD03B008BC184738B5002500950024EE
:10337000652100206A46FEF77FF900282CD06846B8
:1033800002781020024365210020FEF752F9002840
:1033900026D00095642100206A46FEF76DF90028CA
:1033A00022D0684600784206520E80326421002006
:1033B000FEF73FF900281BD000954025652100202D
:1033C0006A46FEF759F9002816D06846007828406A
:1033D000800915D0012416E038BC08BC012018472C
:1033E00038BC08BC0120184738BC08BC012018476D
:1033F00038BC08BC0120184738BC08BC012018475D
:103400006420FCF7BCFF002CD8D038BC08BC0020DE
:10341000184738B5002500950024642100206A462D
:10342000FEF72AF9002820D0684600784206520E9E
:1034300064210020FEF7FDF800281AD000954025F1
:10344000652100206A46FEF717F9002815D0684666
:1034500000782840800914D06420FCF790FF002CED
:10346000EED038BC08BC0020184738BC08BC01208E
:10347000184738BC08BC0120184738BC08BC0120DC
:1034800018470124EBE70000402A022AF0C0002A76
:10349000044C05498C4204D200202060241D8C423B
:1034A000FBD37047E4C1002AA040022AF0B5FFB068
:1034B00082B005000024FA4F0123786800216A4693
:1034C00000F09DFF002805D000207FB002B0F0BCC6
:1034D00008BC184770AB9878DA79997912021143D1
:1034E0001A7A5B7A12041B061A431143A84201D1CF
:1034F0000800EAE770AB987CDA7D997D12021143EF
:103500001A7E5B7E12041B061A431143A84201D1A6
:103510000800DAE778AB9878DA79997912021143E2
:103520001A7A5B7A12041B061A431143A84201D18E
:103530000800CAE778AB997CDA7D987D12021043C7
:103540001A7E5B7E12041B061A431043A942BCD0AC
:103550000600052901D00020B7E77868A1190123EA
:103560006A4600F04CFF002801D00020ADE770ABA8
:103570009978DA799879120210431A7A5B7A1204F0
:103580001B061A43104332191018A9429DD070AA85
:10359000907CD17D947D09020C43117E527E0904FA
:1035A000120611430C430528D7D000208DE7704741
:1035B000BCA07047F0B50022BC4940230C00491064
:1035C0005B00C829FBDC6343551C81540A126C1C48
:1035D00042550022002917DD1D042D0EAE461D02A6
:1035E0001E062D0E360E1F0EAC462300641CC6545C
:1035F0007546631C055565465C1CC5542300641C58
:10360000C754521C8A42F0DB2000F0BC08BC1847AB
:10361000002070470020704710B50400FCF73EFF03
:10362000042C03D010BC08BC0720184710BC08BCF1
:103630000020184770B50025994C6068002803D019
:1036400070BC08BC00201847FCF728FF00212800A8
:1036500000F097FD606000280CD0FCF71FFF606849
:1036600001F013F9162809D000280CD070BC08BC52
:103670000720184770BC08BC072018470020A0602E
:1036800070BC08BC1847FCF709FF0121280000F0B6
:1036900078FDA060FCF702FF0221280000F071FD18
:1036A000E060FCF7FBFE0421280000F06AFD2061C9
:1036B000FCF7F4FE0521280000F063FD6061FCF7D3
:1036C000EDFE0621280000F05CFDA061FCF7E6FE9F
:1036D0000721280000F055FDE06170BC08BC002007
:1036E000184770B50D001400FFF7A4FF072801D09C
:1036F000002004E070BC08BC07201847401CA04212
:10370000FCD3AD1E272D71D2280078440079001813
:10371000874413171B47509D9D544C58645C60218F
:103720004125686D9D9D9D9D9D9D9D9D9D9D9D9D02
:103730009D71767C9D82888E94005949072008707F
:1037400081E05749072008707DE05548012101704C
:103750000021016277E052490720087073E0504C65
:10376000002020700B20FFF7A1FE002801D020626E
:1037700069E00C20FFF79AFE002801D0206262E089
:103780000E20FFF793FE002801D020625BE070BCA2
:1037900008BC07201847424801210170002101623E
:1037A00051E03F490020087008624CE03C49072086
:1037B000087048E03A490720087044E0384907207B
:1037C000087040E03649072008703CE03449072083
:1037D000087038E032490720087034E0304907208B
:1037E000087030E02E49072008702CE02FE02C49AB
:1037F0000720087027E02A4800210170016222E0BA
:10380000274801210170002101621CE024480221A7
:1038100001700021016216E021480321017000219E
:10382000016210E01E4804210170002101620AE0DB
:103830001B48052101700021016204E0184806219F
:1038400001700021016270BC08BC0020184770BCE8
:1038500008BC072018470020704700207047F8B5C3
:1038600005000E0017000E48027801008968072A3B
:1038700008D213007B441B79DB189F441B07090BFC
:103880000D0F1900F8BC08BC002018470C0012E00E
:10389000C46810E004690EE044690CE084690AE041
:1038A000F8C0002A654D4D430000000000080000EC
:1038B000C46900E04468002C02D0012A04D027E04B
:1038C000F8BC08BC07201847002E21D1FF20BF30CC
:1038D000405D012280280ED02800FF30C130837B5C
:1038E000802B08D0807F802805D0FF20EF30405DFE
:1038F000802800D00022002A0AD0002908D0080021
:1039000000F0C3FF002803D0F8BC08BC072018470C
:10391000A0484178012900D0760A006A3618FCF7E1
:10392000BDFD790AF80501D0012000E000200B1848
:103930002A003100200000F0D9FD002803D0F8BC97
:1039400008BC07201847F8BC08BC0020184707200F
:10395000704770B5060090B08E4D2878072808D2C1
:1039600001007944097949188F4414080A0C0E1093
:10397000120010B070BC08BC00201847AC680AE008
:10398000EC6808E02C6906E06C6904E0AC6902E0D0
:10399000EC6900E06C68002C0CD0FCF77FFD200087
:1039A000694600F08FFC002809D010B070BC08BC3C
:1039B0000720184710B070BC08BC072018472878AB
:1039C000002811D001214902300006F027FA012316
:1039D00032000021200000F089FD00280BD010B03B
:1039E00070BC08BC07201847019A0021521E200015
:1039F00000F0B7FE0DE001990123491E32002000BE
:103A000000F074FD002804D010B070BC08BC072082
:103A10001847002804D010B070BC08BC0720184715
:103A200010B070BC08BC0020184710B55948017888
:103A3000072908D20A007A4412799218974413078A
:103A4000090B0D0F110010BC08BC07201847846833
:103A50000AE0C46808E0046906E0446904E0846997
:103A600002E0C46900E04468002C0AD0FCF716FDAF
:103A7000200000F00AFF002807D010BC08BC072077
:103A8000184710BC08BC0720184710BC08BC002011
:103A90001847F8B506000D0017003E4801780729C1
:103AA00008D20A007A441279921897441307090B36
:103AB0000D0F1100F8BC08BC0720184784680AE005
:103AC000C46808E0046906E0446904E0846902E02F
:103AD000C46900E04468002C0ED0FCF7DFFC2B0426
:103AE0001B0C3A003100200000F000FD002807D038
:103AF000F8BC08BC07201847F8BC08BC07201847CA
:103B0000F8BC08BC002018470720704770B590B07B
:103B100006000D001F480178072908D20A007A44E0
:103B200012799218974414080A0C0E10120010B063
:103B300070BC08BC0020184784680AE0C46808E02C
:103B4000046906E0446904E0846902E0C46900E0B5
:103B50004468002C0CD0FCF7A1FC2000694600F062
:103B6000B1FB002809D010B070BC08BC0720184772
:103B700010B070BC08BC07201847402230006946CE
:103B8000FCF7B2FC28684030286010B070BC08BC5C
:103B900000201847F8C0002A002802D0FE4900681B
:103BA00008607047F8B50C000F2824D20022FB4FA4
:103BB0008300FE580DE06968182555434959814234
:103BC00006D118214A43F64840688018F85006E0AC
:103BD000521C002E03D1F24D29689142EBD8FD58BA
:103BE000002D08D0EF481918280001F0C1F9002C69
:103BF00001D0A8682060F8BC08BC18470F280CD278
:103C00008100E6484058002807D0E64A515800296C
:103C100003D00968002900D0084770470F280CD24C
:103C20008100DE484058002807D0DE4A515800295C
:103C300003D04968002900D0084770470F280ED2EA
:103C40008100D6484058002809D0D64A5258002A48
:103C500005D09268002A02D0D34BC918104770478C
:103C60000F280ED28100CD484058002809D0CD4AF7
:103C70005258002A05D0D268002A02D0CA4BC9186F
:103C8000104770470F2806D28100C44840580028CA
:103C900001D0406870470020704730B40F280DD223
:103CA0008300BE48C058002808D0BE4CE358002B03
:103CB00004D01B69002B01D030BC184730BC7047C2
:103CC0000F280CD28200B5488058002807D0B54B89
:103CD0009A58002A03D05269002A00D01047704732
:103CE0000F280CD28200AD488058002807D0AD4B79
:103CF0009A58002A03D09269002A00D010477047D2
:103D00000F280CD28200A5488058002807D0A54B68
:103D10009A58002A03D0D269002A00D01047704771
:103D20000F280CD282009D488058002807D09D4B58
:103D30009A58002A03D0126A002A00D01047704710
:103D40000F280CD2810095484058002807D0954A8A
:103D50005158002903D0496A002902D008470020A1
:103D60007047002070470F280CD281008B484058C4
:103D7000002807D08B4A5158002903D0896A0029AE
:103D800002D0084700207047002070470F280CD24F
:103D9000810082484058002807D0824A51580029A3
:103DA00003D0C96A002902D00847012070470120CA
:103DB00070470F280CD2810078484058002807D05F
:103DC000784A5158002903D0096B002902D00847CE
:103DD000002070470020704770B50C0073490F2811
:103DE00016D283006D48C058002811D06D4DEB5895
:103DF000002B0DD05D6B002D1AD04369002B0FD026
:103E00001E68002E0CD01E68A64205D1596807E036
:103E100070BC08BC0020184708331E68002EF2D181
:103E2000002905DB06F06BFB70BC08BC01201847BD
:103E300070BC08BC0020184770B50C005B490F2807
:103E400016D283005548C058002811D0554DEB5864
:103E5000002B0DD09D6B002D1AD04369002B0FD085
:103E60001E68002E0CD01E68A64205D1596807E0D6
:103E700070BC08BC0020184708331E68002EF2D121
:103E8000002905DB06F03BFB70BC08BC012018478D
:103E900070BC08BC0020184730B40F2812D2840030
:103EA0003E48005900280DD03E4D2C59002C09D019
:103EB000E46B002C09D0002907D0002A05D0A446C5
:103EC00030BC604730BC0020704730BC00207047D9
:103ED00030B40F2812D284003048005900280DD089
:103EE000304D2C59002C09D0246C002C09D000290D
:103EF00007D0002A05D0A44630BC604730BC002063
:103F0000704730BC0020704730B40F2812D28400B4
:103F10002248005900280DD0224D2C59002C09D0E0
:103F2000646C002C09D0002907D0002A05D0A446D3
:103F300030BC604730BC0020704730BC0020704768
:103F400030B40F2812D284001448005900280DD034
:103F5000144D2C59002C09D0A46C002C09D0002938
:103F600007D0002A05D0A44630BC604730BC0020F2
:103F7000704730BC002070470F2819D282000748D4
:103F80008058002814D0074B9A58002A10D0D26CC1
:103F9000002A0DD010470000A4C1002A682E022A72
:103FA0004CB9002AA42E022AE02E022AFFFFFFFFAE
:103FB000704730B40F280DD283005D48C0580028E8
:103FC00008D05C4CE358002B04D01B6D002B01D0B3
:103FD00030BC184730BC704730B40F280DD2830076
:103FE0005348C058002808D0524CE358002B04D046
:103FF0005B6D002B01D030BC184730BC7047F0B46B
:104000000D004D490F281FD284004948005900284F
:104010001AD0484E3459002C16D0A66D002E13D05D
:104020004469002C0BD02768002F08D02768AF42C6
:1040300001D1616803E008342768002FF6D1002918
:1040400002DBB446F0BC6047F0BC7047F0B40D0032
:1040500039490F2821D284003548005900281CD046
:10406000344E3459002C18D0E66D002E15D0002B9C
:1040700013D04469002C0BD02768002F08D0276884
:10408000AF4201D1616803E008342768002FF6D100
:10409000002902DBB446F0BC6047F0BC70470F2833
:1040A0000CD2820022488058002807D0214B9A5811
:1040B000002A03D0126E002A00D0104770470F2844
:1040C0000CD282001A488058002807D0194B9A5801
:1040D000002A03D0526E002A00D0104770470F28E4
:1040E0000ED2820012488058002809D0114B9A58ED
:1040F000002A05D0926E002A04D0002902D0104771
:10410000002070470020704730B40F280DD2830084
:104110000748C058002808D0064CE358002B04D0AC
:10412000DB6E002B01D030BC184730BC704700005C
:10413000682E022AA42E022AFFFFFFFF31B50024B9
:10414000009900290CD00968002909D00D5F684644
:1041500003F0CDF8280003F0EAF8002804D007E0C7
:1041600038BC08BC14201847280001F02BFF0400BD
:104170008B21FB48890005F073FE200038BC08BC89
:104180001847F8B506000C0000250095042E03D34F
:10419000F8BC08BC00201847300001F0B2FB002832
:1041A00006D0200001F059FB0090F8BC08BC18476D
:1041B000300001F07FFE002830D02100300003F0F5
:1041C0006EF80100009000292CD0E4207043E54AED
:1041D0008718F878D4225043C4190834207A042868
:1041E00029D0012853D0052851D002284FD00628C5
:1041F0004DD0080000F0E8FE207224210855002868
:104200001DD0042820D0200000F07FFF00281FD000
:1042100020770098FFF792FF009538E0F8BC08BCC3
:1042200000201847300003F082F800282FD130001A
:1042300001F0C8FE2BE0684603F059F827E000982B
:10424000FFF77CFF009522E0684603F050F81EE07F
:104250000121300003F01FFB200000F094FF002834
:1042600005D020770098FFF769FF00950FE0227ACC
:104270000121300001F012FC200001F007F80028B5
:1042800009D0207725720098FFF758FF0095009815
:10429000F8BC08BC184702206072C0373D77F6E7CB
:1042A00070B505000124A11E2800FFF76AFF002851
:1042B00003D0AD4AA900505000E00024200070BC9B
:1042C00008BC1847F0B585B006000C00002003902C
:1042D000002201920092002E0AD03068002807D0F8
:1042E000815E042909D305B0F0BC08BC142018472E
:1042F00005B0F0BC08BC14201847002C05D00020E5
:1043000020607068411C05D005E005B0F0BC08BC19
:1043100014201847002002903068D422C1785143FD
:104320000D180835287A002844D02070286BE060EA
:1043300031680020085E03F08FF900283DD000208E
:104340002076287A27002037022839D0062837D04F
:104350000298002848D016200390002060606C204E
:10436000405D207400206061387100982062286CE4
:10437000E0612800403004904089E08404988089FE
:1043800020852900200007224E312A3005F0A6FCA6
:104390000498407D7874A86D60635C3503CDE1635B
:1043A000A0632100300001F03DFF039805B0F0BC90
:1043B00008BC184715200390F3E701202076C0E7DA
:1043C00030006A4601A902F0CFFC039001986060BA
:1043D0006C20405D2074A86B6061300002F048FDE5
:1043E0003871E86AA060C0E7A86A6060B7E704288F
:1043F00001D3142070475C4A8000105862E7FFB573
:104400000F008DB000280BD00568002D08D00026C5
:10441000AE5F042E09D311B0F0BC08BC14201847BD
:1044200011B0F0BC08BC14201847DC21495D0029FC
:1044300004D011B0F0BC08BC1B201847E978D42286
:1044400051434C190834217A00290CD001290FD08E
:1044500005290DD002290BD0062909D0102011B052
:10446000F0BC08BC1847152011B0F0BC08BC1847B8
:1044700001F092F80028F7D11099012210000129CB
:1044800000D100201221002800D11121039168469B
:104490000681027500200A90207A052810D006288F
:1044A0000ED0206B784304901098022200900F9B4E
:1044B000280002A901F0B9F811B0F0BC08BC1847F7
:1044C0000497F1E710B5042803D3002010BC08BC02
:1044D0001847254C80002058FFF791FF010001206C
:1044E0000029F3D010BC08BC00201847FFB50F000E
:1044F0008DB000280BD00568002D08D00026AE5FD7
:10450000042E09D311B0F0BC08BC1420184711B018
:10451000F0BC08BC14201847DC21495D002904D0F8
:1045200011B0F0BC08BC1B201847E978D4225143D5
:104530004C190834217A00290CD0012916D00529FC
:1045400014D0022912D0062910D0102011B0F0BCCE
:1045500008BC1847152011B0F0BC08BC1847000073
:104560001C2F022A7031022A4831022A01F014F865
:104570000028F0D1109901221000012900D100205B
:104580001921002800D1182103916846068102757F
:1045900000200A90207A05280DD006280BD0206B29
:1045A000784304901098002200900F9B280002A9E5
:1045B00001F03BF8CFE70497F4E710B5042803D3E4
:1045C000002010BC08BC1847E84C80002058FFF7BA
:1045D0008DFF010001200029F3D010BC08BC002091
:1045E000184701207047012070470020704710B520
:1045F0000124042803D310BC08BC00201847DB4961
:1046000080000858FFF79AFD002800D00024200001
:1046100010BC08BC184710B500280AD00068002854
:1046200007D00021415E042907D310BC08BC00203C
:10463000184710BC08BC00201847DC21095C002981
:1046400003D010BC08BC00201847C178D4225143C5
:104650000C180834207A002808D0200001F041FB13
:10466000092807D010BC08BC0120184710BC08BCA2
:10467000002018470020207210BC08BC18470020FA
:1046800070470020704701207047012070470028C4
:1046900007D004210180B64941808021416000207B
:1046A00070471420704770B50D000024042803D310
:1046B00070BC08BC0020184702F0CEFF02280AD2C6
:1046C00001007944097949188F440004012D02D171
:1046D000012400E00124200070BC08BC1847012020
:1046E000704700207047F0B58BB005000F00082020
:1046F0000A90E42068439F494018C178D42251436E
:104700000E180836012400200090029003900490B7
:104710000590069007900890099069460D800D203D
:10472000019001200873708900040290684601F02E
:104730006BFB0498C004000F0499C905C90F874298
:1047400001D101290AD020000F21641C09038842ED
:10475000D9D30A980BB0F0BC08BC184700200A90C7
:10476000F7E7F0B58BB003000C001700002B10D05A
:10477000186800280DD00026865FC178D4225143E6
:104780000D180835042E09D30BB0F0BC08BC14205A
:1047900018470BB0F0BC08BC14201847287A06282C
:1047A00006D0022804D016200BB0F0BC08BC184775
:1047B000180000F0F1FE0028F6D169460E800120B5
:1047C000087300260896029423200190684601F0A1
:1047D0001BFB0028E8D1287A062816D07F1E780215
:1047E0000019029024200190684601F00DFB00287A
:1047F000DAD101200890029626200190684601F047
:1048000003FB5D4A002804D007E0E019401E029037
:10481000E8E70499114200D00F200728C4D104987A
:10482000104204D00BB0F0BC08BC0F201847280081
:1048300001F073FA0728FAD00BB0F0BC08BC184797
:1048400010B500280FD0006800280CD00021415E70
:10485000C278D4235A4310180830042907D310BC57
:1048600008BC1420184710BC08BC14201847017A53
:10487000062903D010BC08BC162018473F4901F098
:1048800000FE10BC08BC0028184710B500280AD04C
:104890000168002907D000228A5E042A07D310BCD1
:1048A00008BC1420184710BC08BC14201847CA784C
:1048B000D4235A435118097C022905D0062903D074
:1048C00010BC08BC1620184702F0F1FA10BC08BC56
:1048D00018471620704770B50400002C0FD0A1783F
:1048E000022901D006290AD18B25AD0024482900D0
:1048F00005F0B6FA22482A00210005F05BFA70BCE8
:1049000008BC184710B500280FD0006800280CD04C
:104910000021415EC278D4235A431018083004297C
:1049200007D310BC08BC1420184710BC08BC1420C6
:10493000184701F017F810BC08BC184710B500283C
:104940000AD00268002A07D00023D35E042B07D3C5
:1049500010BC08BC1420184710BC08BC1420184711
:1049600002F0A4FB10BC08BC184700004831022A22
:10497000000200007031022A0080FFFD0001A20346
:104980001C2F022A10B50949401805F0B9FD084846
:10499000016010BC08BC184710B50449401805F068
:1049A000AFFD0348416010BC08BC1847E703000096
:1049B000A8C1002A10B504490968484305F098FDCC
:1049C00010BC08BC18470000A8C1002AF8498000A4
:1049D0000858FF3081304068C007C00F002800D061
:1049E0000120F4490006000E48707047002070470F
:1049F000F04800787047EF4A012111708200EC48BE
:104A00008058FF30413002680A4302607047E94A2B
:104A1000002111708100101D4058FF3041300168A5
:104A2000490849000160704710B50400E24A0221BC
:104A30001171B22000F00EFAB32000F00BFAB3208F
:104A400000F011FA012000F035FAB32000F01EFA50
:104A5000012000F02FFAD64AA00010580121C90702
:104A6000FF3081304160B22000F0FCF910BC08BC7E
:104A7000184710B500F034FA10BC08BC184710B540
:104A800000F02DFA10BC08BC184710B50400FF2335
:104A9000002284212000FEF774FBFF2300228721DF
:104AA0002000FEF76EFB642000F013FA10BC08BC77
:104AB000184710B50400FF23002291212000FEF7C3
:104AC00060FBFF23002293212000FEF75AFB6420A5
:104AD00000F0FFF910BC08BC184710B5002909D038
:104AE000012904D1182308220421FEF74AFB10BC37
:104AF00008BC1847182300220421FEF742FB10BC13
:104B000008BC184770478100A9484058FF308130E1
:104B1000416A20229143416270478100A448405875
:104B2000FF308130416A202291434162704710B5C5
:104B300004002000FFF7A9FF2000FFF7BAFF1023B1
:104B40001A0084212000FEF71CFB20231A00842178
:104B50002000FEF716FB0A2000F0ACF910BC08BCE0
:104B6000184710B504001023002284212000FEF70E
:104B700008FB2023002284212000FEF702FB0A20EC
:104B800000F098F910BC08BC184710B504002000CC
:104B9000FFF77BFF2000FFF78CFF02231A00842120
:104BA0002000FEF7EEFA01231A0084212000FEF710
:104BB000E8FA20231A0084212000FEF7E2FA3220CE
:104BC00000F078F910BC08BC184710B504002000AC
:104BD000FFF75BFF2000FFF76CFF08231A0084211A
:104BE0002000FEF7CEFA02231A0084212000FEF7EF
:104BF000C8FA01231A0084212000FEF7C2FA3220ED
:104C000000F058F910BC08BC184710B58721FEF712
:104C100092FA8007C00F10BC08BC184710B5872156
:104C2000FEF789FAC007C00F10BC08BC184710B5C2
:104C30008721FEF780FAC006400F10BC08BC184759
:104C4000F1B582B00020009001240825E1E0132C8A
:104C500072D220007844007900188744D80915D80A
:104C6000D83F5C7A8BA5AFB2B5B8BBBEC1C4DA0081
:104C700002980121FFF731FF0298FFF74EFF0298DB
:104C8000FFF755FF0224C4E000260298FFF7BDFF9E
:104C900007063F0E0298FFF7CAFF0190012F02D0CE
:104CA000019800280BD00A2000F004F9012F04D04D
:104CB0000198002803D0082409E0052407E0962085
:104CC00000F0F8F8761C3606360E062EDDD1022CE2
:104CD00000D106240298FFF744FF9AE00298FFF7FC
:104CE00054FF0298FFF79AFF0406240E0298FFF77C
:104CF0009EFF2100014302D0012C02D003E00924D1
:104D000087E0002803D0002803D0082481E007248E
:104D10007FE010247DE00298FFF737FF0298FFF74D
:104D20007DFF0406240E0298FFF781FF2100014356
:104D300003D0012C03D004E069E0092469E00028D5
:104D400003D0002803D0082463E0072461E0102486
:104D50005FE00298FFF739FF0298FFF75FFF000658
:104D6000000E002802D0012853D101E00A2450E0AF
:104D70000B244EE00298FFF751FF0406240E029820
:104D8000FFF755FF022805D0032809D0042809D0D1
:104D900010243EE0012C01D00D243AE00C2438E030
:104DA0000E2436E00F2434E00025112431E0000009
:104DB000B4C1002AB0C1002A5831022A01251124A9
:104DC00027E00225112424E00325112421E00425F5
:104DD00011241EE0052511241BE00625112418E0EE
:104DE0000725112415E00298FFF74FFE0298FFF700
:104DF00060FE02980021FFF770FE0298FFF783FE25
:104E0000002D02D10298FEF78CF9122401E007254B
:104E10001124122C06D000980099401C642900909F
:104E200000D214E7009864280DD307250298FFF7F5
:104E30002CFE0298FFF73DFE02980021FFF74DFE81
:104E40000298FFF760FE280003B0F0BC08BC1847CA
:104E500001207047022804D0032802D121482249AA
:104E6000C860704770470122012806D0022803D18C
:104E70001D4908691043086170471C480168802378
:104E8000194301600168114301607047012807D090
:104E9000022804D11448016949084900016170479A
:104EA0001248016880229143016001684908490065
:104EB0000160704770B505000024002D06D90C4E26
:104EC0003000FFF777FD641CAC42F9D370BC08BC1E
:104ED000184710B5FFF76EFD10BC08BC18477047A7
:104EE00070470000000A00000029900040025012A4
:104EF000E803000010B50006000E03F047F810BCF0
:104F000008BC184710B50022F121B520FFF7F2FFC9
:104F100000280022E821B520FFF7ECFF0028FF2140
:104F200000220B31B520FFF7E5FF00280022BF214A
:104F3000B520FFF7DFFF00280022C521B520FFF7CD
:104F4000D9FF0028FF2100220D31B520FFF7D2FF45
:104F500000280022F021B520FFF7CCFF0028002216
:104F60000221B520FFF7C6FF10BC08BC0028184777
:104F700010B504F037F910BC08BC184710B5040090
:104F8000FF4802F0B4FB0121200002F06CFB10BCD2
:104F900008BC184710B5FFF7F1FF02F078F910BC14
:104FA00008BC0120184710B50024045F200002F05F
:104FB00035FD01000D22200002F03AFD0028F5D059
:104FC00010BC08BC0020184770B500680024045FBE
:104FD000042C03D3002070BC08BC18470221200019
:104FE00002F000FC0121200002F07FFC00212000E3
:104FF00002F066FC7D25ED00280002F0D9F90121C0
:10500000200002F05DFC280002F0D2F9022120000D
:1050100002F00BFC00221100200000F03FFD2000F8
:1050200004F004F90028D6D1200001F078FB70BC10
:1050300008BC1847F8B504000B001600012500272E
:10504000E75FC42000590028227AC821022A08D02C
:10505000062A06D0002B00D0CA49002805D04143BB
:1050600005E0002BF9D0C849F7E7C84841433800AC
:1050700002F08DFC002060732073606E012802D165
:10508000206B05042D0C6E433100380002F087FCC4
:105090003000F8BC08BC184710B58AB001886A46D1
:1050A0001180032101910121117300210891007ADF
:1050B00002280CD006280AD00291684600F0A4FE0F
:1050C0000498040C20000AB010BC08BC1847022445
:1050D000AF480290684600F097FEF3E7F8B5070086
:1050E0000825AC4E0124380000F0FBFD04280AD04E
:1050F000642002F05DF92000641CB042F3D3280064
:10510000F8BC08BC18470025F9E730B58BB004009F
:1051100020886A461080022001900020029004211D
:1051200011730890684600F06FFE0500002D04D052
:1051300028000BB030BC08BC1847207A04AA02280B
:1051400008D0062806D02100100004F0A4FA002898
:1051500014D005E02100100001F094FD002808D0D3
:105160002000FFF799FF608128000BB030BC08BC1D
:1051700018470BB030BC08BC142018470BB030BC2B
:1051800008BC14201847F0B595B00500280000F0C1
:10519000A8FD032804D0092015B0F0BC08BC1847AE
:1051A00028886946088509200B90042008A90875FD
:1051B00000261296688900040C900AA800F024FECC
:1051C0001490149800281BD128006A460EA900F0FC
:1051D000A5FF287A2C006034012816D0052814D0A9
:1051E00003260227062824D06846027E017A049B03
:1051F000280000F0D9FF68460079322821D0E772F4
:10520000149815B0F0BC08BC18476846007801280F
:1052100008D06846027E017A049B280000F0C4FF93
:10522000E672EDE76846017A049A280000F0CAFFAA
:10523000F6E768460079322801D0E772E0E7E672C7
:10524000DEE7E672DCE770B58AB00400524D2088D4
:105250006946088010200190029501200873002003
:105260000890684600F0D0FD0600002E02D1049898
:1052700080000028002E04D12563A05F290002F0E1
:1052800096FB30000AB070BC08BC1847F0B583B07C
:1052900004000027E75F0121200000F09CFF0028A8
:1052A00020D102206072012666662000FFF7CBFF46
:1052B00005003649C4200151207A022806D006286C
:1052C00004D0012816D0052814D03DE00021692023
:1052D000005D04280AD3200001F0DBFB0500002D4F
:1052E00032D0280003B0F0BC08BC1847380001F0E9
:1052F0004AFA29E02664002001900290200001A9CA
:1053000004F010F80028EDD16846007A05280ED088
:105310000021380004F0A7FA200004F065F9050028
:10532000002D0AD0280003B0F0BC08BC18472000AC
:1053300004F082F90028F6D1EEE7684640790028AB
:1053400002D0200004F0AFF8200000F0CAFC0428CE
:1053500000D00925280003B0F0BC08BC184710B5E0
:1053600004008AB00020002A29D020886A461080D4
:105370000C2001900120107301291ED000200DE0A7
:10538000220B000090010000D007000050C3000075
:1053900000000200008000000002000008900020D1
:1053A0000290684600F030FD002802D12000FFF78F
:1053B00095FE0AB010BC08BC18470120DFE70129A0
:1053C000F7D12000FFF78AFE0AB010BC08BC1847CE
:1053D000F7B50C00150082B000270126A00700D009
:1053E0000026002D41DD029802F018FB0190019982
:1053F00002980F2202F01CFB002801D00D2734E098
:10540000002D30D0019902980B2202F011FB0028E8
:1054100029D001990298092202F00AFB002812D033
:10542000002E10D00298210002F0DFFC2034203D35
:10543000029802F0F3FA01000298092202F0F8FA49
:105440000028EFD10FE0029802F0C7FC002E02D036
:105450002060241D06E000212070000A641C491C05
:105460000429F9D32D1F002DBDDC0D2F02D1029888
:1054700000F0D9FD029802F0E7FB380005B0F0BC5F
:1054800008BC1847F7B50C00150082B000270020B3
:1054900001900126A00700D00026002C11D0029810
:1054A00002F0D2FB002D52DD029802F0B7FA019013
:1054B00001990298102202F0BBFA002806D00E27AC
:1054C00045E005B0F0BC08BC0E201847002D3CD0CC
:1054D00001990298082202F0ABFA002835D101990F
:1054E00002980A2202F0A4FA002818D0002E16D042
:1054F000202D02DA13E0202D27DB0298210002F094
:1055000083FC2034203D029802F088FA0190019932
:1055100002980A2202F08CFA002816D0EBE7002E3F
:1055200006D02168029802F050FC241D2D1F0CE0CB
:1055300000210020227882401143641C083020287A
:10554000F8D3029802F041FC2D1F002DACDC002F97
:105550001AD101990298142202F06AFA002813D194
:1055600001990298102202F063FA002801D00E2758
:105570000AE0029802F052FA01900199029814226E
:1055800002F056FA0028EBD0029802F05DFB3800DA
:1055900005B0F0BC08BC184710B5002809D0016858
:1055A000D423CA785A43511808314268531C04D096
:1055B00004E010BC08BC1420184700224B6893423A
:1055C00003D110BC08BC00201847097A012909D072
:1055D000052907D002290AD0062908D010BC08BC2A
:1055E0001620184704F088F810BC08BC184701F0D2
:1055F00082FB10BC08BC184710B504008AB03722E3
:1056000001924989080402900120694608732088A4
:10561000088000200890684600F0F6FB200000F0AB
:10562000F3FB0AB010BC08BC1847FFB50500140016
:1056300085B00027E878D421484346190836A007EA
:10564000C11704910E9A491C3000FFF7F3FC029039
:10565000029800281ED0002000900190716E0E98D4
:10566000002900D0306B6946088001204871A107ED
:1056700001D569460871A00704D50020285E694657
:1056800002F0A3F9E0070BD006983100FFF7B4FF52
:10569000039009E01420307709B0F0BC08BC18472B
:1056A000069800F0B1FB0390A00704D40020285E08
:1056B000694602F08AF90398002810D1A00707D59F
:1056C0000020285E029A0899FFF782FE070006E094
:1056D0000020285E029A0899FFF7D4FE07000022F6
:1056E000E00706D106984068122801D0192800D199
:1056F000012204993000491CFFF731FE002F00D031
:105700003800307709B0F0BC08BC184730B58BB012
:1057100004002088694608800A20019060890004FE
:1057200002900420087300200890684600F06CFB8B
:105730000500002D04D028000BB030BC08BC184771
:10574000207A022806D0062804D00BB030BC08BC52
:1057500014201847210004A801F094FA002804D06E
:1057600028000BB030BC08BC18470BB030BC08BCDC
:1057700014201847F8B504000025655F0027B549D7
:105780000026200000F07DFE00282ED139002800E0
:1057900000F0F9FF0021200000F01DFD002824D1B9
:1057A000227A0021280000F079F92000FFF7EBFCB5
:1057B00000281AD12000FFF7A9FF002815D10121E8
:1057C000280002F068F8227A0121280000F066F92A
:1057D0002000FFF75BFD002807D102216172E42160
:1057E0004D439D496918C0310E77F8BC08BC184775
:1057F00070B50500E420684397494418E078D42147
:1058000048430019407C012823D0022821D02000E1
:10581000083004F025FB258125800126A6708F49DC
:10582000002048558E494855E078D4214843041952
:1058300000221100280001F0D8FD03F0A3FF25810C
:105840006674E666280000F027FB70BC08BC0120E7
:10585000184770BC08BC01201847F8B50700814EF6
:105860000024345F0025042C40D22000FFF7C0FF45
:1058700000283BD03900200001F011FD0500002D6B
:1058800024D0E420444374482018C178D4225143E2
:105890000C180834207A012828D0052826D00228A0
:1058A00024D0062822D0B0782072B18861812421CA
:1058B0000855002813D02000FFF75CFF002813D004
:1058C00020772800FEF73AFC00250FE0200001F0C9
:1058D0002EFD00280AD1200000F074FB06E028000D
:1058E000FEF72CFC002501E05F486060002D04D12C
:1058F0008B218900300004F0B3FA2800F8BC08BC02
:105900001847584900228A5E824204D188780228CA
:1059100003D0062801D0002070470120704770B5E1
:105920008AB004000D00208869460880102001908C
:1059300002950120087300200890684600F064FA80
:105940000600002E02D1049880000028002E04D109
:105950002563A05F290002F02AF830000AB070BC6D
:1059600008BC1847F0B58FB0050001200E90082044
:1059700001900026AE5F69460E810D20039001273D
:105980000F7500240A9468890004049002A800F0AE
:105990003BFA002849D106988001C00F002848D062
:1059A0006F6601212800FFF7BAFF300000F03BFBD3
:1059B000300002F049F92988684601812A200390C5
:1059C0000494684607750A942749300001F0DFFF08
:1059D0003900300001F0E3FF0C940D94684607860F
:1059E00008A8477502A800F00FFA00281DD1285E0C
:1059F0000CA901F0EAFF285F0E9A01A9FFF742FD0A
:105A0000002812D10826194F0124280000F069F956
:105A1000042813D07D20C00001F0CAFC2000641CC3
:105A2000B842F2D3002E0BD030000FB0F0BC08BC4F
:105A300018470FB0F0BC08BC162018470026F1E745
:105A4000012149022800FFF76AFF0FB0F0BC08BC33
:105A5000002018470000B7037031022AC4C1002A91
:105A6000C8C1002A1C2F022AFFFFFFFF20BF02002F
:105A7000052811D201007944097949188F4402049C
:105A800006080A0000207047012070470620704772
:105A9000072070470920704706207047F8B50500B9
:105AA0000E001400E4206843F7494718280001F06D
:105AB00020FE0200F878D4214843C119083104209F
:105AC000062E48D233007B441B79DB189F44041D0B
:105AD0001D1D090203203FE0002002236031CB722C
